:04000000E1EF02F03A
:08000800046ED8CF05F0E0CF33
:1000100006F00001E9CF0CF0EACF07F0E1CF08F0DD
:10002000E2CF09F0D9CF0AF0DACF0BF0F3CF12F01C
:10003000F4CF13F0FACF14F0F5CF15F0F6CF16F099
:10004000F7CF17F000C00EF001C00FF002C010F0A3
:1000500003C011F0F2AA30EF00F0F2B4F6EF01F0B5
:100060009DAA36EF00F09EBA72EF00F00EC000F0CD
:100070000FC001F010C002F011C003F00CC0E9FF86
:1000800007C0EAFF078E08C0E1FF09C0E2FF0AC00F
:10009000D9FF0BC0DAFF12C0F3FF13C0F4FF14C086
:1000A000FAFF15C0F5FF16C0F6FF17C0F7FF0450A2
:1000B00006C0E0FF05C0D8FF1000F76ACA0FF66E51
:1000C000000EF7220900F5501200C00FE02FE08F5C
:1000D000F09F123E25F848F03FF183FCFBE00F81D2
:1000E000FF013C009EAAFED7AECF23F02350430A67
:1000F00005E0720A0BE0030A0DE010D0000E1AB002
:10010000010E010A1A90E8B01A8008D01AB001D086
:100110001A8204D01AB001D01A8400D09E9A36EF09
:1001200000F0000E956E93988A983C5203E09692E8
:100130008D8202D096908D8000D0956A3DC08CFF54
:1001400000D0939A8A8A00D0939A8A9A96908D903A
:1001500096928D921200266A2650070830E39694F4
:100160008D943C6A400E3D6EDCDF010E3C6E400E0D
:100170003D6ED7DF2650B809286E3C6A3D6ED1DF50
:100180002650B809286E010E3C6E28C03DF0C9DF2C
:1001900096948D84276A27503F080FE32550FF0D62
:1001A000F3CF3DF03C6ABDDF2550FF0DF3CF3DF0AE
:1001B000010E3C6EB6DF272AEED7262ACDD71200D5
:1001C000FF0E956E93988A883B5203E096928D823B
:1001D00002D096908D8000D0939A8A8A00D095683C
:1001E00083CF3CF0939A8A9A96908D9096928D92B6
:1001F0003CC001F01200399035503F0803E2400E38
:10020000355E398096948D94359E358C000E39B0CC
:10021000010E3A6E3C6E35C03DF083DF000E39B002
:10022000010E3A6E3630006E003200321F0E00169C
:100230000050BF0BB8093B6E3AC03CF03D6E71DF19
:1002400096948D84000E39B0010E3A6E3B6EB8DF85
:10025000000E39B0010E3A6E3B6EB2DF01C038F0CD
:10026000372C0FD03650070B3A6E010E006E3A5005
:10027000016E04E0D8900036012EFCD700503812F1
:100280000FD03650070B3A6E010E006E3A50016ED9
:1002900004E0D8900036012EFCD70050FF0A381633
:1002A00096948D94000E39B0010E3A6E3C6E35C0B6
:1002B0003DF037DF96948D84000E39B0010E3A6E12
:1002C0003C6E38C03DF02DDF1200010E2E6E2F6EF9
:1002D000346A2550275C356E355035AE03D0000E9C
:1002E000D88035542D6A2C6E2650285C356E3550DA
:1002F00035AE03D0000ED88035542B6A2A6E2550B7
:10030000275C01E22E682650285C01E22F682B5002
:100310002D5C38E303E12A502C5C34E3D8902A3674
:100320002B362C502A5C006E2D502B5800C030F01C
:10033000316E2C50305C326E2D503158336E2D5250
:1003400003E134502C5C1DE325C035F026C036F0A7
:1003500029C037F050DF31AE08D02A5030262B505C
:1003600031222E502524256E0AD0325030263350AB
:1003700031222E502524256E2F502624266E342A15
:10038000DED733D0D8902C362D362A502C5C006E18
:100390002B502D5800C030F0316E2A50305C326E38
:1003A0002B503158336E2B5203E134502A5C1DE33D
:1003B00025C035F026C036F029C037F01CDF31AE3D
:1003C00008D02C5030262D5031222F502624266E56
:1003D0000AD032503026335031222E502524256E3B
:1003E0002F502624266E342ADED71200CF0ED76E69
:1003F0002B0ED66E256AAFDE3E0E256E266A276E60
:100400003F0E286E010E296E60DF3F0E256E266AB4
:10041000276E286E010E296E58DF400E256E266A63
:10042000276E3F0E286E010E296E4FDF410E256E9E
:10043000266A276E3F0E286E010E296E46DF236A5C
:10044000235010083BE3246A24500B0835E31B506B
:100450002324256E2450110DF350276A266E296A35
:1004600026502324016E27502920036E01C028F056
:10047000016E0330036E2830026E03320232033203
:1004800002321F0E0316025018DE016E2850070BB1
:10049000006E010E0026D89001360132002EFDD7E5
:1004A000000E01B0010E296E25C035F024C036F0D3
:1004B000376EA1DE242AC8D7232AC2D7F29436EF9A
:1004C00000F094908B80939A8A9A96908D90969251
:1004D0008D9296948D94196AF2BE198EF29E3C6AA2
:1004E000C00E3D6E1EDE19BEF28E196AF2BE198E66
:1004F000F29E010E3C6EC00E3D6E13DE19BEF28EF2
:10050000196AF2BE198EF29E3C6A400E3D6E09DEFB
:1005100019BEF28E196AF2BE198EF29E010E3C6E61
:10052000400E3D6EFEDD19BEF28E196AF2BE198EC6
:10053000F29E3C6AB80E3D6EF4DD19BEF28E196A69
:10054000F2BE198EF29E010E3C6EB80E3D6EE9DDD4
:1005500019BEF28E1C2C16D0196AF2BE198EF29EAC
:100560003C6A3F0E3D6EDDDD19BEF28E196AF2BEA9
:10057000198EF29E010E3C6E3F0E3D6ED2DD19BE0D
:10058000F28E15D0196AF2BE198EF29E3C6A3E0EAA
:100590003D6EC7DD19BEF28E196AF2BE198EF29E4B
:1005A000010E3C6E3E0E3D6EBCDD19BEF28E196A28
:1005B000F2BE198EF29E256ACEDD19BEF28EFCEFD8
:1005C00002F0F86AD09E078E700ED36ED350B896A4
:1005D0000C0EAF6EA20EAC6E900EAB6E1A901A920D
:1005E0001A941A961B6AC150C00B0F09C16E070EF0
:1005F000B46E010E1C6E65D7E00EF26E9F8A9D8A66
:10060000D08ECF0ED76E2B0ED66E840ED56EFFD742
:020610000300E5
:020000040030CA
:0E00000020C93E1E0007A1000FC00FE00F40F8
:00000001FF
;PIC18F4550
;CRC=4094  CREATED="20-mar.-24 13:40"
