:040000007FEF08F096
:08000800046ED8CF05F0E0CF33
:1000100006F00001E9CF0CF0EACF07F0E1CF08F0DD
:10002000E2CF09F0D9CF0AF0DACF0BF0F3CF12F01C
:10003000F4CF13F0FACF14F0F5CF15F0F6CF16F099
:10004000F7CF17F000C00EF001C00FF002C010F0A3
:1000500003C011F0F2AA30EF00F0F2B4DAEF03F0CF
:100060009DAA36EF00F09EBAEAEF01F00EC000F054
:100070000FC001F010C002F011C003F00CC0E9FF86
:1000800007C0EAFF078E08C0E1FF09C0E2FF0AC00F
:10009000D9FF0BC0DAFF12C0F3FF13C0F4FF14C086
:1000A000FAFF15C0F5FF16C0F6FF17C0F7FF0450A2
:1000B00006C0E0FF05C0D8FF1000F76ACA0FF66E51
:1000C000000EF7220900F5501200000000000000A9
:1000D000005F00000003000300143E143E14242AB5
:1000E0007F2A1243330866613649552250000503C2
:1000F0000000001C2241000041221C0014083E08A0
:100100001408083E080800503000000808080808D5
:10011000006060000020100804023E5149453E0086
:1001200004027F0042615149462241494936181470
:10013000127F1027454545393E4949493201017131
:1001400009073649494936264949493E00363600AD
:100150000000563600000814224100141414141430
:10016000004122140802015109063E4159555E7EA4
:100170000909097E7F494949363E414141227F4173
:1001800041413E7F494949417F090909013E4141B9
:10019000493A7F0808087F00417F410030404040D5
:1001A0003F7F081422417F404040407F020C027F85
:1001B0007F0204087F3E4141413E7F090909061E36
:1001C0002121215E7F0909097600F76ADA0FF66EB0
:1001D000010EF7220900F550120026494949320163
:1001E000017F01013F4040403F1F2040201F7F20F2
:1001F00010207F41221C22410708700807615149E5
:100200004543007F41000002040810200000417FA8
:10021000000402010204404040404000010204008A
:1002200020545454787F4444443838444444443837
:100230004444447F385454541804047E050508543B
:1002400054543C7F0804047800447D40002040441E
:100250003D007F1028440000417F40007C0478046A
:10026000787C0804047838444444387C1414140816
:10027000081414147C007C080404485454542004CA
:10028000043F44443C4040207C1C2040201C3C4017
:1002900030403C44281028440C5050503C44645496
:1002A0004C44000836414100007F000041413608BF
:1002B000000201020402F76AC60FF66E020EF72270
:1002C0000900F550120002020202020201010101BE
:1002D0000101020202020202020202010101010105
:1002E00001010001020202020202020101010101F8
:1002F00001010000000102020202010101010101ED
:1003000001010100000100010202010000000001E2
:1003100001010101000001000102020100000000D2
:1003200000010101010100000001020201000000C2
:1003300000000101010101010101010102020100AE
:1003400000000101010101010000000000010202A2
:10035000010101010101010100010101010102028C
:10036000020202010101010101010000000001027D
:100370000202020202010101010101010101010267
:100380000202020202020202010101010202020251
:100390000202F76AA20FF66E030EF7220900F5506B
:1003A0001200464C41505059204249524400F76ACD
:1003B000BE0FF66E030EF7220900F55012003C2D19
:1003C0002050726573696F6E6520535441525420FA
:1003D0002D3E00009EAAFED7AECF65F40401655104
:1003E000430A000105E0720A0DE0030A11E015D08E
:1003F000000E040126B1010E010A2691E8B0268103
:100400000DD00001040126B101D0268307D00001E0
:10041000040126B101D0268501D004019E9A000175
:1004200036EF00F00401686B1A0E676F020E6A6FF8
:100430001A0E696F6551FF0DF3CF66F46C6B6B6B31
:100440006C51010816E368C4EAFF6751672BD8B402
:10045000682BE96E66C4EFFF6AC4EAFF6951692B35
:10046000D8B46A2BE96E66C4EFFF6B2BD8B46C2B43
:10047000E7D70001120004017B6B76317A6F7A3383
:100480007A331F0E7A177A377B377A377B377A378A
:100490007B377A377B377A377B377A377B37C00EB3
:1004A0007A1775517A27000E7B2375513F080DE2AC
:1004B0001A0E7A257C6F020E7B217D6F400E7C5DCB
:1004C000786F000E7D59796F06D01A0E7A25786FF5
:1004D000000E7B21796F775313E079C4EAFF78C46B
:1004E000E9FF7651070B7C6F010E006E7C51016EA7
:1004F00004E0D8900036012EFCD70050EF1213D044
:1005000079C4EAFF78C4E9FF7651070B7C6F010ECE
:10051000006E7C51016E04E0D8900036012EFCD7AD
:100520000050FF0AEF1600011200010E04016E6F69
:100530006F6F746B6551675D756F755175AF03D0E3
:10054000000ED88075556D6B6C6F6651685D756F68
:10055000755175AF03D0000ED88075556B6B6A6FFF
:100560006551675D01E26E696651685D01E26F6920
:100570006B516D5D3AE303E16A516C5D36E3D890EF
:100580006A376B376C516A5D006E6D516B5900C0F4
:1005900070F4716F6C51705D726F6D517159736F42
:1005A0006D5303E174516C5D1FE365C475F466C45B
:1005B00076F469C477F400015EDF040171AF08D0FE
:1005C0006A5170276B5171236E516525656F0AD092
:1005D00072517027735171236E516525656F6F518C
:1005E0006625666F742BDCD735D0D8906C376D37A5
:1005F0006A516C5D006E6B516D5900C070F4716F83
:100600006A51705D726F6B517159736F6B5303E177
:1006100074516A5D1FE365C475F466C476F469C4F9
:1006200077F4000128DF040171AF08D06C51702706
:100630006D5171236F516625666F0AD07251702714
:10064000735171236E516525656F6F516625666F15
:10065000742BDCD70001120004016B6B65516B5DDC
:1006600037E26C6B66516C5D31E26C51110DF350E9
:100670006E6B6D6F036A6B516D25016E6E510322B7
:100680000150000118DE02081EE0040167516B25CD
:100690006D6F68516C256E6F6C51110DF350706B5E
:1006A0006F6F036A6B516F25016E70510322015009
:1006B000000101DE04016F6F6DC475F46EC476F441
:1006C000776F0001D8DE04016C2BCCD76B2BC6D71B
:1006D00000011200000E956E93988A9804016C53E5
:1006E00003E096928D8202D096908D8000D0956A1C
:1006F0006DC48CFF00D0939A8A8A00D0939A8A9A0C
:1007000096908D9096928D92000112000401686B74
:100710001A0E676F020E6A6F1A0E696F656B65516C
:10072000070846E396948D946C6B400E6D6F000144
:10073000D1DF010E04016C6F400E6D6F0001CADF46
:1007400004016551B8096B6F6C6B6D6F0001C2DFFE
:1007500004016551B8096B6F010E6C6F6BC46DF4C9
:100760000001B8DF96948D840401666B66513F08E2
:100770001DE368C4EAFF6751672BD8B4682BE96EA4
:10078000EFCF6DF46C6B0001A5DF04016AC4EAFFD2
:100790006951692BD8B46A2BE96EEFCF6DF4010E65
:1007A0006C6F000197DF0401662BE0D7652BB7D78C
:1007B00000011200BE0ED76EE40ED66E0401656B0A
:1007C000000130DE3F0E0401656F666B676F686F76
:1007D000010E696F0001A9DE400E0401656F666BB2
:1007E000676F3F0E686F010E696F00019EDE1AC4CD
:1007F00065F41BC466F41CC467F41DC468F41EC40D
:1008000069F41FC46AF428DF20C465F421C466F4C7
:1008100022C467F423C468F424C469F425C46AF4C8
:100820001BDF74DFF29436EF00F0E00EF26E9F8A69
:100830009D8AD08EBE0ED76EE40ED66ED56A99EF25
:1008400008F094908B80939A8A9A96908D909692C5
:100850008D9296948D94196AF2BE198EF29E0401BF
:100860006C6BC00E6D6F000135DF19BEF28E196A18
:10087000F2BE198EF29E010E04016C6FC00E6D6FF8
:10088000000128DF19BEF28E196AF2BE198EF29E9F
:1008900004016C6B400E6D6F00011CDF19BEF28EFF
:1008A000196AF2BE198EF29E010E04016C6F400EA1
:1008B0006D6F00010FDF19BEF28E196AF2BE198E3C
:1008C000F29E04016C6BB80E6D6F000103DF19BE60
:1008D000F28E196AF2BE198EF29E010E04016C6F3F
:1008E000B80E6D6F0001F6DE19BEF28E0401272DE1
:1008F0001AD0196AF2BE198EF29E6C6B3F0E6D6FA4
:100900000001E8DE19BEF28E196AF2BE198EF29E5F
:10091000010E04016C6F3F0E6D6F0001DBDE19BE2E
:10092000F28E19D00401196AF2BE198EF29E6C6B18
:100930003E0E6D6F0001CEDE19BEF28E196AF2BE58
:10094000198EF29E010E04016C6F3E0E6D6F000158
:10095000C1DE19BEF28E196AF2BE198EF29E040132
:10096000656B00015FDD19BEF28E196AF2BE198E49
:10097000F29ECCDE19BEF28E9FEF08F0110E04013C
:100980001A6F0C0E1B6F010E1E6F1EC41CF4150E89
:100990001F6F1FC41DF4110E206F0C0E216F430E2C
:1009A000246F24C422F4150E256F25C423F40001FE
:1009B000A0EF08F00401445334E04251405D05E2E9
:1009C00040C447F442C448F404D042C447F440C48D
:1009D00048F44351415D05E241C449F443C44AF43B
:1009E00004D043C449F441C44AF44751485D18E374
:1009F00049C446F446514A5D11E3196AF2BE198EA4
:100A0000F29E47C475F446C476F445C477F40001F9
:100A100032DD19BEF28E0401462BECD7472BE5D709
:100A200046D0196AF2BE198EF29E40C465F441C4E4
:100A300066F442C467F441C468F445C469F4000133
:100A400074DD19BEF28E196AF2BE198EF29E40C490
:100A500065F443C466F442C467F443C468F445C40F
:100A600069F463DD19BEF28E196AF2BE198EF29E28
:100A700040C465F441C466F440C467F443C468F4F8
:100A800045C469F452DD19BEF28E196AF2BE198EA0
:100A9000F29E42C465F441C466F442C467F443C4A0
:100AA00068F445C469F441DD19BEF28E0401000109
:100AB000DDEF07F045C4EAFF040144C4E9FFEF524B
:100AC000D8B4C9D045C4EAFF44C4E9FFEF50520886
:100AD00022E345C403F044C4E9FF03C0EAFF200E4B
:100AE000EF5C050DF350036A516F040EEA6E4C0E75
:100AF000E96E556B51C454F4050E016EF76A5151FD
:100B000000015DEC00F00A000900F5CFEEFF012EB8
:100B1000FBD730D0040145C4EAFF44C4E9FFEF50DD
:100B20007E0822E345C403F044C4E9FF03C0EAFFA2
:100B3000530EEF5C050DF350036A516F040EEA6E1D
:100B40004C0EE96E556B51C454F4050E016EF76AF4
:100B500051510001E5EC00F00A000900F5CFEEFF6D
:100B6000012EFBD707D004014C6B4D6B4E6B4F6BC6
:100B7000506B000145C403F004014451E96E03C009
:100B8000EAFFEF500A0A000103E0070A09E00CD06F
:100B900004014651070DF350010F432755D00001C2
:100BA0000401426B51D0000104014651050DF35080
:100BB00042257F0806E2426B4651070DF350010FB4
:100BC0004327486B485104083FE3496B49510608E5
:100BD00037E3036A48514C0FE96E040E0320EA6EB6
:100BE000EFCF00F04951016E04E0D8900032012EA1
:100BF000FCD700A023D04A6B46514A5D1FE24B6BE5
:100C000046514B5D19E24B514225516F4951460304
:100C1000F35043254A25526F196AF2BE198EF29E8F
:100C200051C475F4766F47C477F4000124DC19BE13
:100C3000F28E04014B2BE4D74A2BDED7492BC6D7C3
:100C4000482B46514227BED7442BD8B4452B422BC4
:100C5000000130D7040100011200040EEA6E410EBB
:100C6000E96EEF500DE0020E016E006A002EFED715
:100C7000012EFBD7970E006E002EFED7EF2EF3D776
:100C80001200006A016A04014951D8904AB1002655
:100C9000003201324AB30026003201324AB5002642
:100CA000003201324AB70026003201324AB900262A
:100CB000003201324ABB0026003201324ABD002612
:100CC000003201324ABF0026003201320001120018
:100CD0000401456B42C446F4010ED8804255476F6B
:100CE0004353D8B47CD04551405D486F46514125AF
:100CF000496F455140254A6F465141254B6F196A4E
:100D0000F2BE198EF29E48C465F449C466F44AC422
:100D100067F4686F44C469F4000107DC19BEF28E01
:100D200004014551405D486F4651415D496F455151
:100D300040254A6F4651415D4B6F196AF2BE198ECC
:100D4000F29E48C465F449C466F44AC467F4686F07
:100D500044C469F4000195EC02F019BEF28E04015E
:100D60004651405D486F45514125496F46514025E8
:100D70004A6F455141254B6F196AF2BE198EF29E9A
:100D800048C465F449C466F44AC467F4686F44C44F
:100D900069F4000195EC02F019BEF28E040146518F
:100DA000405D486F4551415D496F465140254A6F4E
:100DB0004551415D4B6F196AF2BE198EF29E48C4CF
:100DC00065F449C466F44AC467F4686F44C469F4BE
:100DD000000195EC02F019BEF28EA8D0040140513A
:100DE0004525486F41514625496F196AF2BE198E53
:100DF000F29E48C475F4766F44C477F400013BEC6E
:100E000002F019BEF28E040140514625486F41514F
:100E10004525496F196AF2BE198EF29E48C475F4D1
:100E2000766F44C477F400013BEC02F019BEF28EF9
:100E300004014551405D486F41514625496F196A8B
:100E4000F2BE198EF29E48C475F4766F44C477F4EE
:100E500000013BEC02F019BEF28E04014651405DE8
:100E6000486F41514525496F196AF2BE198EF29EAD
:100E700048C475F4766F44C477F400013BEC02F08B
:100E800019BEF28E040140514625486F4551415D1F
:100E9000496F196AF2BE198EF29E48C475F4766FD6
:100EA00044C477F400013BEC02F019BEF28E040159
:100EB00040514525486F4651415D496F196AF2BE60
:100EC000198EF29E48C475F4766F44C477F400011D
:100ED0003BEC02F019BEF28E04014551405D486FB3
:100EE0004651415D496F196AF2BE198EF29E48C49F
:100EF00075F4766F44C477F400013BEC02F019BE40
:100F0000F28E04014651405D486F4551415D496F85
:100F1000196AF2BE198EF29E48C475F4766F44C405
:100F200077F400013BEC02F019BEF28E040147AFEA
:100F30000ED04551452B486F020E496F48C44AF404
:100F400000019FDE0150030F0401472711D04551D6
:100F5000452B486F46514607485D486F020E496F62
:100F600048C44AF400018DDE0150050F04014727F3
:100F70004551800A006E4651800A005CD8B4B0D654
:100F8000D8A0AED6000156EF08F0D56A196AF2BEB5
:100F9000198EF29E0401656B000112EC02F019BE7D
:100FA000F28E0401406B416B7F0E426F3F0E436F28
:100FB000446B010E456F0001FDD4040EEA6E270E4E
:100FC000E96E0C0E016EF76A000EC9EC01F00A0022
:100FD0000900F5CFEEFF012EFBD7040E0401426F8E
:100FE000060E436F040E456F270E446F020E466FC8
:100FF000010E476F00015EDD04013C8126A13CD05B
:10100000040EEA6E270EE96E150E016EF76A000EE9
:101010000001D7EC01F00A000900F5CFEEFF012E28
:10102000FBD7000E04013CB1010E406F040E426F6D
:10103000300E436F040E456F270E446F010E466F4E
:1010400040C447F4000136DDFA0E0401416F00018F
:1010500004DE000E04013CB1010E010A3C91E8B02F
:101060003C81196AF2BE198EF29E000186EC03F0F3
:1010700019BEF28E0401C2D7196AF2BE198EF29E11
:10108000F28419BEF28E330E3D6F3D51300832E2CC
:101090003DC43EF43F6B3F0E406F1F0E416F0F0E7D
:1010A000426F010E436F446B000112D63A0E0401E9
:1010B000426F180E436F040E456F3E0E446F020ED2
:1010C000466F010E476F0001F5DC196AF2BE198EFA
:1010D000F29E86EC03F019BEF28E04013D513D07ED
:1010E000040E406FFA0E416F0001B7DD0401402F7E
:1010F000F9D7CBD7800ED56E0001A2EF08F0F86AC1
:10110000D09E078E700ED36ED350B8960C0EAF6E75
:10111000A20EAC6E900EAB6E04012681269326952E
:10112000C150C00B0F09C16E070EB46E000115EF60
:1011300004F0010E0401276F000121EF04F01ED41A
:10114000000123D7040126A103D00001F9D704012F
:101150001DBF0AD01D51000807E21D511D07036A7B
:10116000006EE8BE030604D03F0ED8801B551D6FED
:1011700023BF06D02351000803E22351230704D0E4
:101180003F0ED8802155236F050E416F000165DDAC
:04119000D9D70300A8
:020000040030CA
:0E00000020C93E1E0007A1000FC00FE00F40F8
:00000001FF
;PIC18F4550
;CRC=4BA0  CREATED="21-mar.-24 09:11"
