:04000000C3EF01F059
:08000800046ED8CF05F0E0CF33
:1000100006F00001E9CF0CF0EACF07F0E1CF08F0DD
:10002000E2CF09F0D9CF0AF0DACF0BF0F3CF12F01C
:10003000F4CF13F0FACF14F0F5CF15F0F6CF16F099
:10004000F7CF17F000C00EF001C00FF002C010F0A3
:1000500003C011F0F2AA30EF00F0F2B483EF00F029
:100060000EC000F00FC001F010C002F011C003F08C
:100070000CC0E9FF07C0EAFF078E08C0E1FF09C016
:10008000E2FF0AC0D9FF0BC0DAFF12C0F3FF13C0B2
:10009000F4FF14C0FAFF15C0F5FF16C0F6FF17C035
:1000A000F7FF045006C0E0FF05C0D8FF1000F76A54
:1000B000BE0FF66E000EF7220900F55012003F0643
:1000C0005B4F666D7D077F67F76AD80FF66E000E8F
:1000D000F7220900F5501200FC037C03FA02AF027C
:1000E0005D022402E801A501960166013B011801A9
:1000F000FA00DA00C400A8008D0075006600530005
:10010000490030002A00000E89B8010E010A8998C2
:10011000E8B08988000E89BA010E010A899AE8B010
:10012000898A8C0ED66E89A802D0195003D0000E91
:10013000D8801954D626F29430EF00F01E502002D9
:10014000F3CF01F0F4CF00F02102F35000261F504E
:100150002002F3500020026EF5EF01F0016A026AFE
:10016000006A036A235002E1225018E0100E246E48
:10017000D89020362136003603362350035C02E146
:100180002250005C07E32250005ED8A003062350F3
:10019000035ED88001360236242EEAD701EF02F042
:1001A000206A2050160815E3D8902034036A8CDFAB
:1001B0000900F5CF03F0016E03501F5C08E303E173
:1001C00001501E5C04E30A0E2024016E02D0202A96
:1001D000E8D717EF02F021502318800B256E21AECF
:1001E00005D0201E211E202AD8B4212A23AE05D0F6
:1001F000221E231E222AD8B4232A20502202F3CF03
:1002000001F0F4CF00F02302F35000262150220227
:10021000F3500020026E25AE05D0011E021E012AF9
:10022000D8B4022A31EF02F021502318800B256E3A
:1002300021AE05D0201E211E202AD8B4212A23AEAB
:1002400005D0221E231E222AD8B4232A016A026A5C
:10025000006A036A235002E1225018E0100E246E57
:10026000D89020362136003603362350035C02E155
:100270002250005C07E32250005ED8A00306235002
:10028000035ED88001360236242EEAD725AE05D08B
:10029000011E021E012AD8B4022A3DEF02F02650A8
:1002A000016A255C03E225C000F00CD0006A080E4C
:1002B000276E253600362650005CD8B0006E013619
:1002C000272EF7D71200EA6A250EE96EEF500DE0EF
:1002D000020E016E006A002EFED7012EFBD7970E8C
:1002E000006E002EFED7EF2EF3D794EF01F01EC064
:1002F00025F00A0E266ED3DF01C020F01EC025F0C7
:100300000A0E266ECCDF00C021F01FC025F00A0EB9
:10031000266EC5DF01C022F01FC025F00A0E266E32
:10032000BEDF00C023F0246A245003082AE3010E34
:10033000006E2450016E04E0D8900036012EFCD7E8
:100340000050FF0A0F0B8A12010E006E2450016E3E
:1003500004E0D8900036012EFCD70050FF0A8A1620
:10036000036A2450200FE96E000E0320EA6E036A30
:10037000EF509DDE8C6E2450242A050E256EA3D7E7
:10038000D3D758EF02F0F86AD09E078E700ED36E66
:10039000D350196AC150C00B0F09C16E070EB46E5D
:1003A0000F0E926E100E936E956A8A9A898AC20E0B
:1003B000D56EE40EF26E070EC26E0D0EC16E800E8B
:1003C000C06E0A0E1C6E1D6AC284C19AC198C28298
:1003D000060E006E002EFED70000C4CF1FF0C3CF64
:1003E0001EF0216A0F0E206EA9D602C01FF001C0B8
:1003F0001EF01FC021F01EC020F0030E236E2268E5
:10040000ADD602C01FF001C01EF00A0E1E241A6EE7
:10041000C30EC216C18AC188C282060E006E002EAB
:10042000FED70000C4CF1FF0C3CF1EF0B9D601C065
:100430001BF081A804D081B8FED71AC01CF01C5054
:100440001B5C2FE01F6A1BC01EF01C501E5E000EBE
:100450001F5A1FC021F01EC020F0236A280E226EF2
:10046000BAD602C01FF001C01EF002C021F001C0C8
:1004700020F0236A160E226ED7D602C01FF001C0EC
:100480001EF01C501B5C03E20368B50E02D0036A29
:100490004B0E1E24016E1F50032201C019F08A8AE0
:1004A00002D08A9A196A1BC01EF01AC01FF01FD70B
:0404B0008BD70300E3
:020000040030CA
:0E00000020C93E1E0087A1000FC00FE00F4078
:00000001FF
;PIC18F4550
;CRC=72FE  CREATED="27-feb.-24 11:01"
