:0400000043EF11F0C9
:08000800046ED8CF05F0E0CF33
:1000100006F00001E9CF0CF0EACF07F0E1CF08F0DD
:10002000E2CF09F0D9CF0AF0DACF0BF0F3CF12F01C
:10003000F4CF13F0FACF14F0F5CF15F0F6CF16F099
:10004000F7CF17F000C00EF001C00FF002C010F0A3
:1000500003C011F09DA230EF00F09EB2F3EF01F06B
:100060009DAA36EF00F09EBA73EF01F09DA43CEF1D
:1000700000F09EB493EF01F0A0A042EF00F0A1B019
:10008000C3EF01F00EC000F00FC001F010C002F08D
:1000900011C003F00CC0E9FF07C0EAFF078E08C0DB
:1000A000E1FF09C0E2FF0AC0D9FF0BC0DAFF12C0AE
:1000B000F3FF13C0F4FF14C0FAFF15C0F5FF16C01C
:1000C000F6FF17C0F7FF045006C0E0FF05C0D8FFD9
:1000D0001000F76AE20FF66E000EF7220900F550E5
:1000E0001200000000000000005F00000007000791
:1000F00000147F147F14242A7F2A122313086462B9
:1001000036495620500008070300001C2241000019
:1001100041221C002A1C7F1C2A08083E0808008077
:10012000703000080808080800006060002010080F
:1001300004023E5149453E00427F40007249494910
:10014000462141494D331814127F10274545453942
:100150003C4A494931412111090736494949364646
:100160004949291E00001400000040340000000826
:1001700014224114141414140041221408020159C9
:1001800009063E415D594E7C1211127C7F49494956
:10019000363E414141227F4141413E7F49494941EB
:1001A0007F090909013E414151737F0808087F001A
:1001B000417F41002040413F017F081422417F40A0
:1001C0004040407F021C027F7F0408107F3E414177
:1001D000413E7F090909063E4151215E7F091929E7
:1001E0004600F76AF20FF66E010EF7220900F5508D
:1001F0001200264949493203017F01033F40404034
:100200003F1F2040201F3F4038403F6314081463C5
:1002100003047804036159494D43007F4141410281
:1002200004081020004141417F04020102044040C3
:10023000404040000307080020545478407F284481
:1002400044383844444428384444287F385454546B
:100250001800087E090218A4A49C787F080404787A
:1002600000447D40002040403D007F1028440000B5
:10027000417F40007C047804787C0804047838448A
:10028000444438FC1824241818242418FC7C08043E
:100290000408485454542404043F44243C4040205F
:1002A0007C1C2040201C3C4030403C44281028440A
:1002B0004C9090907C4464544C44000836410000BB
:1002C0000077000000413608000201020402F76ACC
:1002D000DE0FF66E020EF7220900F55012005343AE
:1002E0004144410000009EAAFED7AECFEBF40401CA
:1002F000EB512B0A000103E0060A10E011D0040EB6
:10030000EA6E250EE96EED6A9EAAFED7AECFECFF2F
:100310000D0EEF5CF9E1EC6A1E8202D01E8400D063
:100320009E9A42EF00F0BDA006D0BFCF56F4BECFDC
:1003300055F4BD9025D0BF500401565D16E303E18E
:100340005551BE5C12E2FF0ED8805555EB6FFF0E83
:100350005655EC6FBE50EB25316FBF50EC21326F1C
:10036000336BD8B0332B346B08D05551BE5C316F32
:100370005651BF58326F336B346B3981BD800001E9
:100380009E9442EF00F0BAA006D0BCCF58F4BBCF89
:1003900057F4BA9025D0BC500401585D16E303E130
:1003A0005751BB5C12E2FF0ED8805755EB6FFF0E22
:1003B0005855EC6FBB50EB253C6FBC50EC213D6FAA
:1003C0003E6BD8B03E2B3F6B08D05751BB5C3C6FA7
:1003D0005851BC583D6F3E6B3F6B4481BA80000161
:1003E000A19042EF00F093908A7083A018D093827E
:1003F00081A20BD0010E04015127D8B0522BD8B4E2
:10040000532BD8B4542B0AD00001FF0E04015127FE
:10041000D8A05227D8A05327D8A0542700019E92D5
:1004200042EF00F064743D25667C2065743D2566CE
:10043000000025332E316620636D0000040EEA6E45
:10044000B30EE96EEF500DE0060E016E006A002E4D
:10045000FED7012EFBD77B0E006E002EFED7EF2EAF
:10046000F3D71200080E016E00008C9C959C0000D2
:100470000401B7378C9ED8B0958ED8A0959E958CE8
:1004800083ACFED7012E01D002D00001EDD70000D1
:100490008C9C959C0000958E00000000958C83AC90
:1004A000FED7016A000083BE01808C9C959C8C9EC7
:1004B000959E000112000401B66B958E0000958C8C
:1004C00000008C9E959E00008C9C959C19C0B7F4F2
:1004D0000001C8DFB6C4B7F4C5DFB5C4B7F4C2DFE6
:1004E000959E0000958C83ACFED7000000D00000E4
:1004F000958E0000120085C41AF086C419F00A0E09
:100500000401B36F00019ADFAE0E0401B56F000164
:10051000D2DFD50E0401B56F0001CDDF800E0401DE
:10052000B56F0001C8DFA80E0401B56F0001C3DF7D
:100530003F0E0401B56F0001BEDFD30E0401B56F9D
:100540000001B9DF0401B56B0001B5DF400E040105
:10055000B56F0001B0DF8D0E0401B56F0001ABDF98
:100560000401852D06D0100EB56F0001A4DF05D063
:100570000401140EB56F00019EDF200E0401B56F5B
:10058000000199DF0401B56B000195DFA10E0401A4
:10059000B56F000190DFC80E0401B56F00018BDF5D
:1005A000DA0E0401B56F000186DF120E0401B56F8B
:1005B000000181DF810E0401B56F00017CDF0401C1
:1005C000852D06D09F0EB56F000175DF05D00401A3
:1005D000CF0EB56F00016FDFD90E0401B56F0001BA
:1005E0006ADF0401852D06D0220EB56F000163DF9E
:1005F00005D00401F10EB56F00015DDFDB0E0401D3
:10060000B56F000158DF400E0401B56F000153DFE4
:10061000A40E0401B56F00014EDFA60E0401B56FF4
:10062000000149DF2E0E0401B56F000144DFAF0E5B
:100630000401B56F00013FDF1B6A1C6A010E1D6ECD
:100640004BEF03F0010E926E936A860E946E030ECA
:10065000956EC26E0E0EC16E800EC06EC00EF2128E
:100660009D827A0ECA6E010ECB6ECA84D76AD66A94
:10067000140ED56EB36AB26AC90EB16E050EBA6EAB
:10068000BACFBDFFA0809D84020E0401856F780E55
:10069000866F000130D7D4EF12F00401B36BB26B58
:1006A000B35103080BE31F0EB225E96E000EB32110
:1006B000EA6EEF6AB22BD8B4B32BF2D70001120066
:1006C0000401B7517F0803E3B8513F0801E204D0A9
:1006D000B7C41BF0B8C41CF00001ECEF05F0040136
:1006E000B75302E1010EB76FB7C41DF00001EFEF81
:1006F00005F00401E3517F0803E3E4513F0801E200
:100700006ED0E55336E0E431006E003200321F0E49
:1007100000160050E76BE66FE635026EE735036EB4
:100720000236033602360336023603360236033605
:100730000236033602360336800E02160250E325D7
:10074000E66F000E0320E76F1F0EE625E96E000E30
:10075000E721EA6EE451070B016E010E006E0152B3
:1007600004E0D8900036012EFCD70050EF10EF6E59
:1007700036D0E431006E003200321F0E00160050F9
:10078000E76BE66FE635026EE735036E0236033639
:100790000236033602360336023603360236033695
:1007A00002360336800E02160250E325E66F000E75
:1007B0000320E76F1F0EE625E96E000EE721EA6EC3
:1007C000E451070B016E010E006E015204E0D89057
:1007D0000036012EFCD70050FF0AEF14EF6E000127
:1007E00012000401D591CE51D25DE36FCF51D359A0
:1007F000E46F036EE351E4AF08D0000ED880E355F8
:10080000006E000EE455036E0050E36F03C0E4F485
:10081000CC51D05DE56FCD51D159E66F036EE551F6
:10082000E6AF08D0000ED880E555006E000EE65504
:10083000036E0050016E0350E45D05E303E1E351F4
:10084000015C01E2D581D5A118D0CDC4DCF4CCC4C3
:10085000DBF4CFC4CDF4CEC4CCF4DCC4CFF4DBC421
:10086000CEF4D1C4DEF4D0C4DDF4D3C4D1F4D2C408
:10087000D0F4DEC4D3F4DDC4D2F4D1AF03D0CDAF15
:100880000AD002D0CDBF1FD0D151CD5D1CE303E112
:10089000CC51D05D18E2CDC4E0F4CCC4DFF4D1C4B7
:1008A000CDF4D0C4CCF4E0C4D1F4DFC4D0F4CFC4D0
:1008B000E2F4CEC4E1F4D3C4CFF4D2C4CEF4E2C4A3
:1008C000D3F4E1C4D2F4CC51D05D006ECD51D159F6
:1008D00000C0D7F4CE51D25DE36FCF51D359E46F4E
:1008E000036EE351E4AF08D0000ED880E355006EEC
:1008F000000EE455036E0050D86FD890D731D96FF1
:10090000DA6BCFAF03D0D3AF0AD002D0D3BF0AD0B7
:10091000CF51D35D07E303E1D251CE5D03E2010E77
:10092000D66F01D0D669CDAF03D0D1AF0AD002D0F7
:10093000D1BF47D0CD51D15D44E303E1CC51D05D6F
:1009400040E3D5A115D0D4530AE0CEC4E3F4CCC41F
:10095000E4F4010EE56F0001CCDE08D00401CEC442
:10096000E3F4CCC4E4F4E56B0001C3DE14D004016D
:10097000D4530AE0CCC4E3F4CEC4E4F4010EE56F32
:100980000001B7DE08D00401CCC4E3F4CEC4E4F423
:10099000E56B0001AEDE0401D851D95F000EDA5BD1
:1009A000DAAF0BD0036AD651E8BE0306CE27035058
:1009B000CF23D751D927000EDA23CC2BD8B4CD2B97
:1009C000B2D70001F8EF04F00401C951C825FF0FA8
:1009D000CB6FCD6BC7C4CCF4CF6BC8C4CEF4D16B96
:1009E000C7C4D0F4D36BD26FCAC4D4F40001F9D613
:1009F00010EF05F00401C0C4C5F4C66BC251C02598
:100A0000C6BF04D0C65311E1C55D0FE2C5C4C7F42B
:100A1000C1C4C8F4C3C4C9F4C4C4CAF40001D4D75F
:100A20000401C52BD8B4C62BE9D70001120004017C
:100A3000B851200805E11B5203E11EA001D0C4D02B
:100A4000B851070804E11C6A1CC01BF0BDD0B851A6
:100A500008080AE11D50060DF3501B5C05E31D500C
:100A6000060DF3501B5EB0D0B8510D0802E11B6AB1
:100A7000ABD0B8510A080CE11D50080DF3501C26EC
:100A80001D50070DF3501C24400801E21C6A9CD045
:100A9000B8511F0803E2B8517E0802E23F0EB86F5A
:100AA000BA6BBA5104085CE3B85152080EE3200E49
:100AB000B85D050DF350BA25036A000169EC00F03A
:100AC000016EE8CFBCF40CD00401530EB85D050DE7
:100AD000F350BA25036A0001F1EC00F0E8CFBCF452
:100AE0000401BB6BBB51060839E3BCA102D0B9813C
:100AF00001D0B9911D2C13D0BA511B24BD6FBB512D
:100B00001C24BE6F000EB9B1010EBF6FBDC4E3F46B
:100B1000BEC4E4F4E56F0001ECDD1AD00401BA5163
:100B20001D02F3501B24BD6FBB511D02F3501C244A
:100B3000BE6F000EB9B1010EBF6FBDC4C0F4BEC41C
:100B4000C1F41DC0C2F41DC0C3F4C46F000152DF64
:100B50000401BB51BB2BD890BC33C4D7BA2BA1D74F
:100B60001D50050DF3501B24BD6F1D50070DF3CF15
:100B7000C3F4BDC4C0F41CC0C1F41DC0C2F4C46B36
:100B8000000138DF1D50060DF3501B261D50060DC9
:100B9000F350800F1B5C03E002E3800E1B6E1EA06F
:100BA00012D01D50050DF3501B2480080CE21B6A67
:100BB0001D50080DF3501C261D50070DF3501C242A
:100BC000400801E21C6A04010001EFEF05F0B2C425
:100BD000B7F4B3C4B8F474D5B6C4B7F480D5B5C40B
:100BE000EAFF0401B4C4E9FFEF5210E0B5C403F01A
:100BF000B451B42BD8B4B52BE96E03C0EAFFEFCFE4
:100C0000B8F4000114D70001EAD704010001120072
:100C1000210E0401B56F00014EDC0401B56B00012B
:100C20004ADC7F0E0401B56F000145DC220E040191
:100C3000B56F000140DC0401B56B00013CDC070E20
:100C40000401B56F000137DC0401B36BB26BB35123
:100C500003083CE3958E0000958C00008C9E959EC9
:100C600000008C9C959C19C0B7F4000132EC02F096
:100C7000400E0401B76F000132EC02F00401B46BC6
:100C8000B4510F0811E31F0EB225E96E000EB32117
:100C9000EA6EEFCFB7F4000132EC02F00401B22BA0
:100CA000D8B4B32BB42BECD7B251D8B4B307B20736
:100CB000959E0000958C83ACFED7000000D000000C
:100CC000958E0000B22BD8B4B32BC1D7000112000F
:100CD0000401BF51D8B471D0006EC351D8B46DD0E7
:100CE000002604E3810E002668E204D07F0E005E39
:100CF00064E363E0C0C4C7F4C451C71BC08FC48F92
:100D0000C251C603F4CFC9F4C151C503F4CF03F0F7
:100D1000F3CFC8F4C603F350C927F450C823000E1C
:100D20000322C251C503F350C927F450C823000E53
:100D3000026A03220222C051C603F350C827F450AE
:100D40000322000E0222C051C503F3500326F450C3
:100D50000222000E016A0122C251C403F350C827C7
:100D6000F4500322000E02220122C151C403F350A9
:100D70000326F4500222000E0122C051C403F35096
:100D80000226F4500122002A01BE05D0C8370336DE
:100D9000023601360006000EC8AF0AD0032A02222E
:100DA0000122015005E1025003E1035001E1002A54
:100DB000C7BF018EC7AF019E04D0006A016A026AF4
:100DC000036A00011200800ED8A202D00401BB1BEE
:100DD0000401C06BC16BB7C4BFF4BB51BF1BB6519C
:100DE000D8B4DFD0BE6F006EBA51D8B4E3D0BE5FC6
:100DF000D8B483D03EE3BBC4C4F4C48FBCC4C3F432
:100E0000BDC4C2F4C16BD890C433C333C233C13341
:100E1000BE2FF8D7BFAF03D0C081E0D0C091BE9144
:100E2000C089040EEA6EB90EE96EEBD0C099BFBF5F
:100E30000AD0BEA113D0C433C333C233C133002A96
:100E4000D8B4C7D00BD0C4BF0CD0D890C137C237EC
:100E5000C337C4370006D8B4BCD0F5D7C08D6DD029
:100E6000C09DB7C4BFF4B7AF02D0C48FABD0C49F8E
:100E7000A9D0BAC4BEF4BAC400F0B651BE5FB7C4BC
:100E8000C4F4C48FB8C4C3F4B9C4C2F4C16BD8905D
:100E9000C433C333C233C133BE2FF8D7BFAF03D07F
:100EA000C0839CD0C093BE91C08B040EEA6EBD0E71
:100EB000E96EA7D0C09BBFBF0AD0BEA113D0C43378
:100EC000C333C233C133002AD8B483D00BD0C4BFDC
:100ED0000CD0D890C137C237C337C4370006D8B456
:100EE00078D0F5D7C08F29D0C09FBBC4BFF4BBAFAB
:100EF00002D0C48F67D0C49F65D0BBC4C4F4C48F74
:100F0000BCC4C3F4BDC4C2F4BFAF04D0C49FC08589
:100F100065D0C095C16BBE91040EEA6EB90EE96E44
:100F200070D0BFBF1CD0B7C4BFF4BEA106D0C433BD
:100F3000C333C233C133002A4CE0C1AF0BD0C22B44
:100F400009E1C32B07E1C42B05E1C433C333C2332A
:100F5000002A3FE0C0BD84D7C0BFC6D71CD0800EDA
:100F6000C41BC4AF04D03AD0BBC4BFF40AD0B7C4CA
:100F7000BFF4C45306E1C35304E1C25302E1006A63
:100F800021D0C4BF08D0D890C137C237C337C437C7
:100F9000002EF7D71ED0BFAF02D0C48F13D0C49F8E
:100FA00011D0BAC400F0BBC4C4F4BCC4C3F4BDC403
:100FB000C2F408D0B6C400F0B7C4C4F4B8C4C3F4D3
:100FC000B9C4C2F4C4C401F0C3C402F0C2C403F083
:100FD00034D0006A016A026A036A2FD0C16BC21F53
:100FE000C31FC41FC11FC12B05E1C22B03E1C32BCB
:100FF00001E1C42BC0B112D7C0B354D7C0B589D753
:10100000B3D7EF50C22705E3C32B03E1C42BD8B4F9
:10101000BE81ED52EF50C32703E3C42BD8B4BE8189
:10102000ED52EF50EFBE01D0800AC427D8B0BE8188
:10103000C0B9FCD6C0BB3ED774D700011200040172
:101040009B51070B006E9B31016E013201321F0E66
:10105000011601509D25E96E000E9E21EA6E016A7F
:10106000012A002A01D00136002EFDD79C5303E04F
:101070000150EF1203D0011E0150EF1600011200C3
:10108000B60E006E036A026A016A04019B519C114C
:101090009D119E1102E1006A0DD0D89001BE09D0C9
:1010A0009B379C379D379E37033602360136002E1C
:1010B000F4D7019E000112000401B651D8B4A5D0A6
:1010C000C26FBA51D8B4A1D0C25F05E37F0EC22768
:1010D000D8B09BD006D0810EC25FD8A096D0D8B42D
:1010E00094D0C2C400F0016A026A036AC16BB7C43B
:1010F000C0F4C08FB8C4BFF4B9C4BEF4190EC26F37
:10110000BD51BE5F0DE2010EBF5F0AE2C05F08E2A3
:10111000C15F06E2C12BC02BBF2BBD51BE2728D01B
:10112000BC51BF5F12E2010EC05F0FE2C15F0DE272
:10113000C12BC02BBC51BF27BD51BE2719E3BF2B0C
:1011400017E1C02B15E1C12B13D0BB518009C05F43
:101150000EE2010EC15F0BE2C12BBB518009C0271B
:10116000BC51BF27E9E3C02BE7E1C12BE5D70380E2
:10117000C22F01D00BD0D890BE37BF37C037C13790
:10118000D890033602360136C337BAD7C3A106D08A
:10119000D890013202320332C33302D0000635E068
:1011A000C3BF1ED0D890BE37BF37C037C137BD517F
:1011B000BE5F07E2010EBF5F04E2C05F02E2C15FF3
:1011C0001AE3BC51BF5F05E2010EC05F02E2C15FDE
:1011D00012E3BB518009C05F03E2010EC15F0BE364
:1011E000032A09E1022A07E1012A05E1002A0DE0AC
:1011F000013202320332B7C4C2F4BB51C21BC2AFC8
:1012000002D0018E06D0019E04D0006A016A026AF3
:10121000036A0001120004018D6B8E6B8F6B906B63
:10122000916B926B936B946BC26BC16B700EC06FC2
:10123000840EBF6F48C4C6F447C4C5F446C4C4F4A2
:1012400045C4C3F4000144DDD8920401B96B4C0ECF
:10125000B86F010EB76F8E0EB66F03C0BDF402C03B
:10126000BCF401C0BBF400C0BAF40001ACDD03C0A3
:1012700098F402C097F401C096F400C095F40401FC
:10128000996B99511308D8A00DD12FC49BF4010E6E
:101290009C6F0F0E9E6F890E9D6F0001D0DE2FC4D4
:1012A0009BF404019C6B0F0E9E6F920E9D6F0001CC
:1012B000C6DE3AC49BF4010E04019C6F0F0E9E6FB4
:1012C000890E9D6F0001BBDE3AC49BF404019C6B48
:1012D0000F0E9E6F920E9D6F0001B1DE100E006E1C
:1012E000002EFED700002FC49BF404019C6B0F0E50
:1012F0009E6F890E9D6F0001A2DE2FC49BF4040136
:101300009C6B0F0E9E6F920E9D6F000198DE3AC48B
:101310009BF404019C6B0F0E9E6F890E9D6F000164
:101320008EDE3AC49BF404019C6B0F0E9E6F920EEE
:101330009D6F000184DE04019A6B39A102D044B193
:101340000DD09A51190801E209D09A519A2B010E39
:10135000B36F00011EEC02F00401EFD74491399104
:1013600034C49EF433C49DF432C49CF431C49BF461
:10137000000186DE03C0C2F402C0C1F401C0C0F4A3
:1013800000C0BFF498C4C6F497C4C5F496C4C4F4AE
:1013900095C4C3F49DDC03C09EF402C09DF401C05B
:1013A0009CF400C09BF403C0B9F402C0B8F401C0BF
:1013B000B7F400C0B6F4800E0401BD6F960EBC6F8A
:1013C000180EBB6F960EBA6F000176DED89290C4ED
:1013D000B9F48FC4B8F48EC4B7F48DC4B6F403C0A6
:1013E000BDF402C0BCF401C0BBF400C0BAF4EBDC35
:1013F00003C090F402C08FF401C08EF400C08DF4DD
:101400003FC49EF43EC49DF43DC49CF43CC49BF494
:1014100037DE03C0C2F402C0C1F401C0C0F400C092
:10142000BFF498C4C6F497C4C5F496C4C4F495C474
:10143000C3F44EDC03C09EF402C09DF401C09CF4D2
:1014400000C09BF403C0B9F402C0B8F401C0B7F403
:1014500000C0B6F4800E0401BD6F960EBC6F180E6E
:10146000BB6F960EBA6F000127DED89294C4B9F410
:1014700093C4B8F492C4B7F491C4B6F403C0BDF4F5
:1014800002C0BCF401C0BBF400C0BAF49CDC03C0D1
:1014900094F402C093F401C092F400C091F40401EA
:1014A000992BEFD690C4B9F48FC4B8F48EC4B7F4B6
:1014B0008DC4B6F4BD6BBC6B200EBB6F830EBA6FD0
:1014C0000001FADD03C038F402C037F401C036F47D
:1014D00000C035F494C4B9F493C4B8F492C4B7F41A
:1014E00091C4B6F40401BD6BBC6B200EBB6F830EC0
:1014F000BA6F0001E1DD03C043F402C042F401C051
:1015000041F400C040F4F1EF0AF0B60E006E036A39
:10151000026A016A0401919190AF0CD091818D1FF4
:101520008E1F8F1F901F8D2B05E18E2B03E18F2BBC
:10153000D8B4902B8D518E118F11901102E1006A59
:101540000FD0D89001BE09D08D378E378F379037A6
:10155000033602360136002EF4D7019E91B1018E7A
:1015600000012DEF0BF0B3C4BAF40401B751BA1B5C
:10157000BAAF05D0D894D890B3BFD8802FD0B3C419
:10158000BAF4B6C4BBF4B251BB5F06E0BAAF26D022
:10159000D850010AD86E22D0B7C4BBF4B351BB5F98
:1015A00006E0BAAF1BD0D850010AD86E17D0B8C425
:1015B000BBF4B451BB5F06E0BAAF10D0D850010AFB
:1015C000D86E0CD0B9C4BBF4B551BB5F06E0BAAF5E
:1015D00005D0D850010AD86E01D0D8900001120071
:1015E0001AD6D89238C4B9F437C4B8F436C4B7F4AC
:1015F00035C4B6F443C4BDF442C4BCF441C4BBF426
:1016000040C4BAF4E3EC06F003C090F402C08FF4D7
:1016100001C08EF400C08DF403C0B9F402C0B8F468
:1016200001C0B7F400C0B6F40401BD6BBC6BBB6B6A
:10163000800EBA6F000140DD03C088F402C087F459
:1016400001C086F400C085F454C490F453C48FF4F0
:1016500052C48EF451C48DF458D703C0C2F402C0F2
:10166000C1F401C0C0F400C0BFF4AB0E0401C66FEA
:10167000C00EC56F5A0EC46F760EC36F000168ECC2
:1016800006F003C08CF402C08BF401C08AF400C0E1
:1016900089F41EB609D088C44CF487C44BF486C4C0
:1016A0004AF485C449F473D08CC4B5F48BC4B4F443
:1016B0008AC4B3F489C4B2F40401B96BB86BB76BD4
:1016C000810EB66F00014FDF09E38CC44CF48BC46C
:1016D0004BF48AC44AF489C449F459D0D89288C4D6
:1016E000B9F487C4B8F486C4B7F485C4B6F4040169
:1016F000BD6BBC6BBB6B800EBA6F0001E3EC06F0F8
:101700008CC4B5F48BC4B4F48AC4B3F489C4B2F401
:1017100003C0B9F402C0B8F401C0B7F400C0B6F415
:1017200022DF2DE3D88288C4B9F487C4B8F486C414
:10173000B7F485C4B6F40401BD6BBC6BBB6B800E03
:10174000BA6F0001E3EC06F003C0B5F402C0B4F4D4
:1017500001C0B3F400C0B2F48CC4B9F48BC4B8F4C3
:101760008AC4B7F489C4B6F4FEDE09E388C44CF435
:1017700087C44BF486C44AF485C449F408D08CC4A9
:101780004CF48BC44BF48AC44AF489C449F41CEF6A
:1017900013F08E0E006EB3C401F0B2C402F0036AFF
:1017A000015209E102C001F0026A080E005E015216
:1017B00002E1006A08D0D89001BE04D0023601369A
:1017C0000006F9D7019E120062C4EAFF61C4E9FF76
:1017D0000401BFC4EFFFE92AD8B4EA2AEF6A612BFB
:1017E000D8B4622B000112000900F6CFB3F4F7CF92
:1017F000B4F4F5CFBFF4E8DFB3C4F6FFB4C4F7FF29
:101800000401B22F01D002D00001EED70001120076
:101810000401BF51B608BF6F036AC0C4C3F4C08FD0
:10182000D890C033C133C2330332023201320032A6
:10183000BF2FF6D7C3AF0BD0001E011E021E031E22
:10184000002AD8B4012AD8B4022AD8B4032A000145
:10185000A0EF0CF0D8B204D0040EEA6EC70EE96E09
:10186000006A016A026A036A0401C76BC86BC96B2C
:10187000CA6BC651C511C411C3112CE0200ECB6F29
:10188000D890BF37C037C137C237C737C837C93715
:10189000CA37C651CA5D08E1C551C95D05E1C451E9
:1018A000C85D02E1C351C75D0FE3C351C75FC451B7
:1018B000D8A0C43DC85FC551D8A0C53DC95FC651B9
:1018C000D8A0C63DCA5FD88000360136023603363E
:1018D000CB2FD6D7C7C4EFFFC8C4ECFFC9C4ECFFF9
:1018E000CAC4ECFF00011200E9500401B76FB65101
:1018F000B96F1CE0B5C4C2F4B4C4C1F4B3C4C0F43D
:10190000B2C4BFF4C66BC56B200EC46F820EC36F2A
:10191000000168EC06F003C0B5F402C0B4F401C0E5
:10192000B3F400C0B2F40401B92FE4D7B5C4C2F4D3
:10193000B4C4C1F4B3C4C0F4B2C4BFF4000168D7E6
:1019400003C0B5F402C0B4F401C0B3F400C0B2F4F3
:101950000401B5AF0DD0B707B78BB21FB31FB41FCB
:10196000B51FB22BD8B4B32BD8B4B42BD8B4B52B85
:101970003B0EBE6F9A0EBD6FCA0EBC6FBB6B0A0EDC
:10198000B96FB651D8B4B72BD882040EEA6EB20E36
:10199000E96EB5C4C2F4B4C4C1F4B3C4C0F4B2C4F3
:1019A000BFF4BEC4C6F4BDC4C5F4BCC4C4F4BBC457
:1019B000C3F400014FDF0150005213E10401B629C6
:1019C000B95DD8A402D000010CD0B7510DE00F0BC7
:1019D000B95D01E040E2B7BF3ED0B7BD05D0200EF3
:1019E00034D0200E0401B717B7AB0ED0B79BB65159
:1019F000D8A4B7070050B76F2D0EBF6F0001E4DE0B
:101A00000401B751006EB76BB651B95D0CE10050DF
:101A1000B76F2E0EBF6F0001D7DE0401B751006E05
:101A2000200EB717000E300EB7AB0FD0B79BB651D4
:101A3000D8A4B7070050B76F2D0EBF6F0001C4DEEA
:101A40000401B751006EB76B300E002600C0BFF422
:101A50000001BADE0401D892BEC4C2F4BDC4C1F410
:101A6000BCC4C0F4BBC4BFF4C66BC56BC46B0A0E68
:101A7000C36F0001EFDE03C0BEF402C0BDF401C0BD
:101A8000BCF400C0BBF40401B92F7ED700011200E2
:101A90008E0E006E0401B251005EB3C402F0B4C4F5
:101AA00001F0028E005209E0D890025202E1015288
:101AB00004E002320132002EF7D7B3AF05D0011E89
:101AC000021E012AD8B4022A00011200D590D7CFF5
:101AD000B3F4D6CFB2F45DDE03C0B9F402C0B8F4FB
:101AE00001C0B7F400C0B6F4800E0401BD6F960EBD
:101AF000BC6F180EBB6F900EBA6F00015CEC08F063
:101B000003C088F402C087F401C086F400C085F4E5
:101B1000D88250C4B9F44FC4B8F44EC4B7F44DC41D
:101B2000B6F44CC4BDF44BC4BCF44AC4BBF449C4C1
:101B3000BAF4E3EC06F003C08CF402C08BF401C0ED
:101B40008AF400C089F40401C26BC16BC06B810EC2
:101B5000BF6F8CC4C6F48BC4C5F48AC4C4F489C4F2
:101B6000C3F4000168EC06F003C090F402C08FF4E7
:101B700001C08EF400C08DF48CC4C2F48BC4C1F4D7
:101B80008AC4C0F489C4BFF488C4C6F487C4C5F449
:101B900086C4C4F485C4C3F468EC06F0D89260C46B
:101BA000B9F45FC4B8F45EC4B7F45DC4B6F403C05E
:101BB000BDF402C0BCF401C0BBF400C0BAF4E3EC55
:101BC00006F003C060F402C05FF401C05EF400C020
:101BD0005DF4CD0E0401C26FCC0EC16F4C0EC06F10
:101BE0007B0EBF6F60C4C6F45FC4C5F45EC4C4F4AA
:101BF0005DC4C3F4000168EC06F003C094F402C0B5
:101C000093F401C092F400C091F4D8828CC4B9F46A
:101C10008BC4B8F48AC4B7F489C4B6F45CC4BDF408
:101C20005BC4BCF45AC4BBF459C4BAF4E3EC06F088
:101C300003C0B5F402C0B4F401C0B3F400C0B2F400
:101C400003C0B9F402C0B8F401C0B7F400C0B6F4E0
:101C500088C4BDF487C4BCF486C4BBF485C4BAF49C
:101C60005CEC08F003C098F402C097F401C096F44D
:101C700000C095F40401C26BC16BC06B810EBF6FD5
:101C800090C4C6F48FC4C5F48EC4C4F48DC4C3F428
:101C9000000168EC06F003C0B5F402C0B4F401C062
:101CA000B3F400C0B2F4CD0E0401C26FCC0EC16F0C
:101CB0004C0EC06F7B0EBF6F94C4C6F493C4C5F4C2
:101CC00092C4C4F491C4C3F4000168EC06F0D89245
:101CD000B5C4B9F4B4C4B8F4B3C4B7F4B2C4B6F478
:101CE00003C0BDF402C0BCF401C0BBF400C0BAF430
:101CF000E3EC06F003C0B5F402C0B4F401C0B3F4E1
:101D000000C0B2F4CD0E0401C26FCC0EC16F4C0EF8
:101D1000C06F7B0EBF6F98C4C6F497C4C5F496C459
:101D2000C4F495C4C3F4000168EC06F0D892B5C4BD
:101D3000B9F4B4C4B8F4B3C4B7F4B2C4B6F403C0CD
:101D4000BDF402C0BCF401C0BBF400C0BAF4E3ECC3
:101D500006F003C09CF402C09BF401C09AF400C0DA
:101D600099F41EA85DD10401B56BB46B7F0EB36FFF
:101D7000860EB26F9CC4B9F49BC4B8F49AC4B7F48D
:101D800099C4B6F40001B3EC0AF008E304019C6BBB
:101D90009B6B7F0E9A6F860E996F4CD09CC4B5F4E6
:101DA0009BC4B4F49AC4B3F499C4B2F40401B96BFB
:101DB000B86BB769860EB66F0001B3EC0AF007E3A3
:101DC00004019C6B9B6B9A69860E996F33D09CC4FF
:101DD000B5F49BC4B4F49AC4B3F499C4B2F4040146
:101DE000B96BB86BB76B7F0EB66F0001B3EC0AF03E
:101DF00007E304019C6B9B6B9A6B7F0E996F1AD063
:101E00000401B56BB46B800EB36F7F0EB26F9CC4D0
:101E1000B9F49BC4B8F49AC4B7F499C4B6F40001F9
:101E2000B3EC0AF008E304019C6B9B6B800E9A6F85
:101E30007F0E996F00014DEC03F0040E0401626FF8
:101E40009D0E616F240EF66E040EF76E030EB26FD8
:101E50000001CADC890EE96E88C4B5F487C4B4F405
:101E600086C4B3F485C4B2F4020E0401B66F000157
:101E70003BDD290EF66E040EF76E050E0401B26FFF
:101E80000001B2DC890EE96E8CC4B5F48BC4B4F4E5
:101E90008AC4B3F489C4B2F4020E0401B66F00011F
:101EA00023DD0401B26BB36B040EB56F9D0EB46FEE
:101EB000010EB66F0001E7EC05F0040E0401626F3D
:101EC0009D0E616F4F0EBF6F00017EDC3D0E040161
:101ED000BF6F000179DC890EE96E9CC4B5F49BC428
:101EE000B4F49AC4B3F499C4B2F4020E0401B66F08
:101EF0000001FADC0401B26B280EB36F040EB56F5B
:101F00009D0EB46F020EB66F0001E7EC05F008EC11
:101F100006F0080E0401B26FFA0EB36F00011EEC5A
:101F200002F00401B22FF8D7B56BB46BB36BB26B90
:101F30009CC4B9F49BC4B8F49AC4B7F499C4B6F479
:101F40000001B3EC0AF02DE3D8820401B96BB86B41
:101F50007F0EB76F860EB66F9CC4BDF49BC4BCF4F5
:101F60009AC4BBF499C4BAF40001E3EC06F003C0D0
:101F70009CF402C09BF401C09AF400C099F48A92C8
:101F8000939299C4B2F49AC401F09BC4B4F49CC473
:101F9000B5F4019E01C0B3F47BDD01C0CBFFCA8460
:101FA0003FD09CC4B5F49BC4B4F49AC4B3F499C4B0
:101FB000B2F40401B96BB86BB76BB66B0001B3EC4C
:101FC0000AF02DE3D8929CC4B9F49BC4B8F49AC427
:101FD000B7F499C4B6F40401BD6BBC6B7F0EBB6F44
:101FE000860EBA6F0001E3EC06F003C09CF402C059
:101FF0009BF401C09AF400C099F48A82939299C428
:10200000B2F49AC401F09BC4B4F49CC4B5F4019E2C
:1020100001C0B3F43DDD01C0CBFFCA8401D0CA9436
:10202000D76AD66AD5801EEF13F004018C6B8B6BD8
:102030008A6B7F0E896F906B8F6B8E6B8D6B91812E
:1020400091939195936B8551861105E1006A016A20
:10205000026A036A15D19351932B8525E96E000E10
:102060008621EA6EEFCF92F49253D8B4CBD091A1EF
:102070000FD0925120080CE0919192512B0803E16E
:102080009193B4D005D092512D0802E19183AED046
:1020900091B107D092512E0804E191B502D09185FB
:1020A000A5D091B1A0D092512F08D8B09CD0925118
:1020B0003908D8A098D0300E925F91A557D08CC423
:1020C000C2F48BC4C1F48AC4C0F489C4BFF4C66B23
:1020D000C56B200EC46F820EC36F000168EC06F062
:1020E00003C08CF402C08BF401C08AF400C089F4F0
:1020F0000401B36B92C4B2F40001C9EC0BF003C04D
:1021000097F402C096F401C095F400C094F403C0A3
:10211000B9F402C0B8F401C0B7F400C0B6F48CC47E
:10212000BDF48BC4BCF48AC4BBF489C4BAF45CECBF
:1021300008F0D89290C4B9F48FC4B8F48EC4B7F440
:102140008DC4B6F403C0BDF402C0BCF401C0BBF43E
:1021500000C0BAF4E3EC06F003C090F402C08FF4C0
:1021600001C08EF400C08DF43CD00401C26BC16B81
:10217000200EC06F820EBF6F90C4C6F48FC4C5F42A
:102180008EC4C4F48DC4C3F4000168EC06F003C02F
:1021900097F402C096F401C095F400C094F40401D1
:1021A000B36B92C4B2F40001C9EC0BF0D89297C49F
:1021B000B9F496C4B8F495C4B7F494C4B6F403C0A3
:1021C000BDF402C0BCF401C0BBF400C0BAF4E3EC3F
:1021D00006F003C090F402C08FF401C08EF400C07A
:1021E0008DF405D0040191B101D00CD0000104019F
:1021F0009351932B8525E96E000E8621EA6EEFCF71
:1022000092F432D791A31AD0C26BC16B800EC06F0B
:102210007F0EBF6F90C4C6F48FC4C5F48EC4C4F4DF
:102220008DC4C3F4000168EC06F003C090F402C052
:102230008FF401C08EF400C08DF404018751881121
:1022400017E093530CE0930788C4EAFF87C4E9FFC3
:1022500093518525EF6E000E8621EC6E09D088C45F
:10226000EAFF87C4E9FF86C4ECFFED5285C4EFFFA7
:102270008DC400F08EC401F08FC402F090C403F04E
:10228000000186EF13F0F86AD09E078EB886080E1C
:10229000AF6E020EB06EA60EAC6E900EAB6E1E80D0
:1022A0001E921E940401486B476B700E466F830E9E
:1022B000456F4C6B4B6B4A6B496B506B4F6B4E6B66
:1022C0004D6B546B536B526B516B1E961E88626B39
:1022D000616BC150C00B0F09C16E070EB46E42D1C5
:1022E0003F401F0003808080800FC00004808080FA
:1022F000C0C03FC000088080C0E0F0F8FCF8E011EA
:10230000C00005C080038000808004C00005C0803C
:10231000048000FFFFFF04C00004C0800F800000A5
:102320008080000080FFFF80800080800004C080EB
:10233000038000808005C0000E80808000008C8EAD
:1023400084000080F8F8F8800DC0000CC0F00C800C
:10235000E0E0C08000E0FCFEFFFFFF7F05C0FF0E55
:10236000C0000380FEFFC704C001088083FFFF0098
:10237000007CFEC704C001358083FFFFFF0038FEEC
:10238000C78301010183C7FFFF000001FFFF0101B7
:1023900000FFFF0701010100007FFF80000000FF38
:1023A000FF7F0000FFFFFF000001FFFFFF010DC0E6
:1023B000000580030F3F7F7F07C0FF0C80E7C7C782
:1023C0008F8F9FBFFFFFC3C0F005C0FF08C0FC0890
:1023D00080F8F8F0F0E0C0000105C00303800103BD
:1023E0000304C00001800104C0030880010103014F
:1023F0000000000104C0030E80010103030000007F
:102400000303000000030307C00001800105C003AF
:102410000D80010000000103010000000303011111
:10242000C000058080C0E0F0F905C0FF0C803F1FB0
:102430000F87C7F7FFFF1F1F3DFC04C0F802807C19
:102440007D08C0FF07807F3F0F0700303016C000B7
:102450000380FEFEFC16C0000280E0C00BC000023C
:1024600080303015C0000280C0FE09C0FF0C807FA4
:102470007F3F1F0F071F7FFFFFF8F805C0FF078092
:10248000FEF8E00000000108C0001F80FEFE000012
:1024900000FCFEFC0C06060EFCF80000F0F81C0E1A
:1024A0000606060CFFFFFF0000FEFE04C0003180A0
:1024B000FCFEFC00183C7E66E6CE84000006FFFFB2
:1024C0000606FCFEFC0C0606060000FEFE0000C030
:1024D000F8FC4E4646464E7C7840183C76E6CECC1C
:1024E0008014C000058001070F1F1F04C03F038038
:1024F0001F0F030CC00008800F0F0000000F0F0F0C
:1025000004C0002C800F0F000003070E0C18180CDD
:10251000060F0F0F0000010F0E0C180C0F07010023
:10252000040E0C180C0F070000000F0F00000F0F17
:102530000F06C00016800F0F00000007070C0C18D4
:102540001C0C060600040E0C180C0F0782C00002BB
:10255000042F047C09C0000280057C09C0000C44E3
:1025600055000000000EF86E220EF76EE00EF66EBB
:102570000900F550006E000A13E00900F550016EE5
:10258000E8BE05D03F0BEA6E0900F5CFE9FF01BCBC
:10259000090001AC0900F5CFEEFF004EE9D7F9D7ED
:1025A000F86A000122EF03F08A929392050ECB6E37
:1025B000CA84958083A0FDD7958283A2FAD7CA9456
:1025C0000401546B536B526B516B1E86506B4F6BF7
:1025D000700E4E6F820E4D6F00014DEC03F0040E35
:1025E000EA6E630EE96E070E016EF76A000E67EC85
:1025F00001F00A000900F5CFEEFF012EFBD7150E02
:102600000401B26FB36F040EB56F630EB46F030EA7
:10261000B66F0001E7EC05F008EC06F0040E0401CB
:10262000856FFA0EB36F00011EEC02F00401852FD6
:10263000F8D70001F0EF0AF066EF0DF0040E040188
:10264000626F7C0E616F890EE96E48C4B5F447C4B1
:10265000B4F446C4B3F445C4B2F4020EB66F00013C
:1026600074EC0CF0200E0401BF6F0001E4EC0BF0E1
:10267000430E0401BF6F0001E4EC0BF0040E0401F3
:10268000626F6A0E616F020EE96E4CC4B5F44BC402
:10269000B4F44AC4B3F449C4B2F4010EB66F0001F5
:1026A00074EC0CF0370EF66E040EF76E030E040198
:1026B000B26F0001F4EC0BF04DEC03F0050E0401D9
:1026C000B26FB36F040EB56F7C0EB46F010EB66FB0
:1026D0000001E7EC05F0100E0401B26F180EB36FA5
:1026E000040EB56F6A0EB46F020EB66F0001E7EC10
:1026F00005F008EC06F01EA21DD0040E0401866F42
:10270000250E856F886B876B00018FD403C050F452
:1027100002C04FF401C04EF400C04DF4800ECB6EE9
:10272000CA84958083A0FDD7958283A2FAD7CA94E4
:102730001E881E921EA402D01E98CA947BD7030046
:020000040030CA
:0E00000020CC3E1E0007A1000FC00FE00F40F5
:00000001FF
;PIC18F4550
;CRC=5CE1  CREATED="18-jun.-24 17:37"
