:10000000EDEF04F08E0E006E32C001F031C002F050
:10001000036A0152D8A419EF00F002C001F0026A8D
:10002000080E005E0152D8A419EF00F0006A23EF19
:1000300000F0D89001BE22EF00F002360136000633
:1000400019EF00F0019E12003150D8B471D0006E4B
:100050003550D8B46DD0002604E3810E002668E246
:1000600004D07F0E005E64E363E032C039F03650A6
:10007000391A328E368E34503802F4CF3BF033507A
:100080003702F4CF03F0F3CF3AF03802F3503B26B7
:10009000F4503A22000E032234503702F3503B262C
:1000A000F4503A22000E026A032202223250380231
:1000B000F3503A26F4500322000E02223250370247
:1000C000F3500326F4500222000E016A012234503C
:1000D0003602F3503A26F4500322000E0222012287
:1000E00033503602F3500326F4500222000E012250
:1000F00032503602F3500226F4500122002A01BE8B
:1001000005D03A360336023601360006000E3AAE06
:100110000AD0032A02220122015005E1025003E124
:10012000035001E1002A39BE018E39AE019E04D090
:10013000006A016A026A036A1200800ED8B2361A97
:100140003B6A3C6A32C03AF036503A1A3150D8B461
:10015000DCD0396E006E3550D8B4E0D0395ED8B4FA
:1001600081D03DE336C03FF03F8E37C03EF038C00F
:100170003DF03C6AD8903F323E323D323C32392E1F
:10018000F8D73AAE03D03B80DDD03B9039903B8826
:10019000EA6A340EE96EE9D03B983ABE0AD039A03B
:1001A00013D03F323E323D323C32002AD8B4C5D063
:1001B0000BD03FBE0CD0D8903C363D363E363F3655
:1001C0000006D8B4BAD0F5D73B8C6BD03B9C32C07C
:1001D0003AF032AE02D03F8EA9D03F9EA7D035C0B4
:1001E00039F035C000F03150395E32C03FF03F8EFB
:1001F00033C03EF034C03DF03C6AD8903F323E32CE
:100200003D323C32392EF8D73AAE03D03B829AD0F9
:100210003B9239903B8AEA6A380EE96EA6D03B9A47
:100220003ABE0AD039A013D03F323E323D323C3282
:10023000002AD8B482D00BD03FBE0CD0D8903C3628
:100240003D363E363F360006D8B477D0F5D73B8EE4
:1002500028D03B9E36C03AF036AE02D03F8E66D0F4
:100260003F9E64D036C03FF03F8E37C03EF038C06E
:100270003DF03AAE04D03F9E3B8464D03B943C6A50
:100280003990EA6A340EE96E70D03ABE1CD032C0A2
:100290003AF039A006D03F323E323D323C32002A9D
:1002A0004CE03CAE0BD03D2A09E13E2A07E13F2A53
:1002B00005E13F323E323D32002A3FE03BBC86D76B
:1002C0003BBEC7D71CD0800E3F1A3FAE04D03AD0F9
:1002D00036C03AF00AD032C03AF03F5206E13E5200
:1002E00004E13D5202E1006A21D03FBE08D0D8901F
:1002F0003C363D363E363F36002EF7D71ED03AAE5E
:1003000002D03F8E13D03F9E11D035C000F036C0D2
:100310003FF037C03EF038C03DF008D031C000F0AB
:1003200032C03FF033C03EF034C03DF03FC001F07A
:100330003EC002F03DC003F034D0006A016A026A98
:10034000036A2FD03C6A3D1E3E1E3F1E3C1E3C2AC7
:1003500005E13D2A03E13E2A01E13F2A3BB015D7E2
:100360003BB256D73BB48AD7B3D7EF503D2605E30F
:100370003E2A03E13F2AD8B43980ED52EF503E26A1
:1003800003E33F2AD8B43980ED52EF50EFBE01D0DD
:10039000800A3F26D8B039803BB8FED63BBA3FD75B
:1003A00074D712008E0E006E3350005E34C002F01F
:1003B00035C001F0028E005209E0D890025202E1ED
:1003C000015204E002320132002EF7D734AE05D0DC
:1003D000011E021E012AD8B4022A120032C039F0CE
:1003E0003650391A39AE05D0D894D89032BED8805C
:1003F0002FD032C039F035C03AF031503A5E06E0C5
:1004000039AE26D0D850010AD86E22D036C03AF084
:1004100032503A5E06E039AE1BD0D850010AD86E91
:1004200017D037C03AF033503A5E06E039AE10D0FC
:10043000D850010AD86E0CD038C03AF034503A5E29
:1004400006E039AE05D0D850010AD86E01D0D89058
:100450001200016A026A006A036A365002E13550EE
:1004600018E0100E376ED890333634360036033627
:100470003650035C02E13550005C07E33550005E06
:10048000D8A003063650035ED88001360236372ED8
:10049000EAD7120026C036F025C035F024C034F06B
:1004A00023C033F07FDF02C028F001C027F028C04E
:1004B00032F027C031F0A6DDD88226C034F025C046
:1004C00033F024C032F023C031F003C038F002C052
:1004D00037F001C036F000C035F02FDE03C030F039
:1004E00002C02FF001C02EF000C02DF026C034F065
:1004F00025C033F024C032F023C031F0386A376AA7
:10050000200E366E820E356E69DFD8A07ED01DC0FB
:10051000E9FF1EC0EAFF27C0EFFF30C034F02FC054
:1005200033F02EC032F02DC031F0386A376A200E19
:10053000366E820E356E88DD03C02CF002C02BF0C3
:1005400001C02AF000C029F020C003F01FC0E9FF5D
:1005500020C0EAFF2CC036F02BC035F02AC034F0A2
:1005600029C033F01FDF01C0EFFF2CC036F02BC0D5
:1005700035F02AC034F029C033F014DF326A01C0EC
:1005800031F040DDD8822CC034F02BC033F02AC0CB
:1005900032F029C031F003C038F002C037F001C09A
:1005A00036F000C035F0C9DD03C02CF002C02BF0DE
:1005B00001C02AF000C029F02CC034F02BC033F069
:1005C0002AC032F029C031F0386A376A200E366E00
:1005D000820E356E39DD03C02CF002C02BF001C055
:1005E0002AF000C029F022C003F021C0E9FF22C098
:1005F000EAFF2CC036F02BC035F02AC034F029C0F9
:1006000033F0D0DE01C0EFFFB7D026C034F025C0F4
:1006100033F024C032F023C031F0386A376A480E14
:10062000366E850E356EDADE4AE31EC003F01DC05D
:10063000E9FF1EC0EAFF28C034F027C033F0366A55
:100640000A0E356E06DF01C0EFFF1DC0E9FF1EC0B8
:10065000EAFFEF500A0DF350275C006E000E285899
:1006600020C0EAFF1FC0E9FF00C0EFFF30C034F038
:100670002FC033F02EC032F02DC031F0386A376A07
:10068000200E366E820E356EDFDC03C02CF002C009
:100690002BF001C02AF000C029F022C003F021C0D5
:1006A000E9FF22C0EAFF2CC036F02BC035F02AC08B
:1006B00034F029C033F076DE01C0EFFF5DD026C0F4
:1006C00034F025C033F024C032F023C031F0386A52
:1006D000376A7A0E366E880E356E80DE4DE31EC0A8
:1006E00003F01DC0E9FF1EC0EAFF28C034F027C098
:1006F00033F0366A640E356EACDE01C0EFFF20C009
:1007000003F01FC0E9FF20C0EAFF28C034F027C073
:1007100033F0366A0A0E356E9CDE01C0EFFF20C052
:10072000EAFF1FC0E9FFEFCF33F01DC0E9FF1EC095
:10073000EAFFEF500A0DF350335C20C0EAFF1FC000
:10074000E9FFEF6E1DC0E9FF1EC0EAFFEF50640D28
:10075000F3CF33F01FC0E9FF20C0EAFFEF500A0DCE
:10076000F3503324275C006E000E285822C0EAFFA5
:1007700021C0E9FF00C0EFFF16EF04F0150E205E68
:100780000EE3EA6A200EE96EFC0EEF16D890EF3207
:10079000EF32EF5004E001D00000EF2EFDD7120041
:1007A000346A336A700E326E840E316E18C038F0BF
:1007B00017C037F016C036F015C035F045DC03C061
:1007C00020F002C01FF001C01EF000C01DF0D89242
:1007D00003C034F002C033F001C032F000C031F089
:1007E000386A376A7A0E366E880E356EA6DC03C01C
:1007F00036F002C035F001C034F000C033F0D2DD75
:1008000002C00FF001C00EF01E6A1A0E1D6E206AA3
:100810001B0E1F6E226A1C0E216E18C026F017C018
:1008200025F016C024F015C023F034D6959A8C8A92
:10083000959C8C8C95988C9818C034F017C033F028
:1008400016C032F015C031F0386A376A200E366EA5
:10085000820E356EC3DD03E3800E196E01D0196A76
:10086000036A1A50040FE96E000E0320EA6E195055
:10087000EF24936A8A6E95908C800FC01DF01D2A1C
:100880001D06D8B403D0206879DFFAD70EC020F057
:1008900075DF95908C90100ED8800E541D6E270E2B
:1008A0000F541E6E1EC01FF01F2A1F06D8B403D09F
:1008B000206864DFFAD71DC020F060DF95988C882F
:1008C000959C8C8C959A8C9A18C034F017C033F094
:1008D00016C032F015C031F0386A376A480E366EED
:1008E000850E356E7BDD13E318C034F017C033F08E
:1008F00016C032F015C031F0386A376A200E366EF5
:10090000820E356E6BDD03E2800E196E01D0196A1E
:10091000036A1B50040FE96E000E0320EA6E1950A3
:10092000EF24936A8A6E95908C800FC01DF01D2A6B
:100930001D06D8B403D0206821DFFAD70EC020F0FE
:100940001DDF95908C90100ED8800E541D6E270ED2
:100950000F541E6E1EC01FF01F2A1F06D8B403D0EE
:1009600020680CDFFAD71DC020F008DF95988C882E
:10097000959A8C8A959C8C9C196A036A1C50040F6A
:10098000E96E000E0320EA6E1950EF24936A8A6E16
:1009900095908C800FC01DF01D2A1D06D8B403D081
:1009A0002068ECDEFAD70EC020F0E8DE95908C903F
:1009B000100ED8800E541D6E270E0F541E6E1EC0D2
:1009C0001FF01F2A1F06D8B403D02068D7DEFAD73D
:1009D0001DC020F0D3DE5CEF05F0F86AD09EC15058
:1009E000C00B0F09C16E070EB46E3F0E046E060EEB
:1009F000056E5B0E066E4F0E076E660E086E6D0E70
:100A0000096E7D0E0A6E070E0B6E7F0E0C6E670E62
:100A10000D6EC050C00BC06EC08EC280C150C00BE6
:100A20001D09C16E030E926E000E016EC250C30B03
:100A30000110C26E030E006E002EFED7C282C2B23B
:100A4000FED7C4CF02F0C3CF01F0C4CF03F0C3CFB1
:100A500031F0C4CF32F002EC00F003C013F002C05A
:100A600012F001C011F000C010F013C034F012C039
:100A700033F011C032F010C031F0890E386E250EFF
:100A8000376E160E366E7C0E356E24EC00F003C009
:100A900013F002C012F001C011F000C010F0146A8F
:100AA000145021080BE313C018F012C017F011C046
:100AB00016F010C015F074D6142AF2D7BFD7030071
:020000040030CA
:0E00000020C03E1E0087A1000FC00FE00F4081
:00000001FF
;PIC18F4550
;CRC=96C5  CREATED="23-sep.-23 17:05"
