:04000000F9EF02F022
:08000800046ED8CF05F0E0CF33
:1000100006F00001E9CF0CF0EACF07F0E1CF08F0DD
:10002000E2CF09F0D9CF0AF0DACF0BF0F3CF12F01C
:10003000F4CF13F0FACF14F0F5CF15F0F6CF16F099
:10004000F7CF17F000C00EF001C00FF002C010F0A3
:1000500003C011F0F2A830EF00F0F2B2ECEF00F0C4
:100060000EC000F00FC001F010C002F011C003F08C
:100070000CC0E9FF07C0EAFF078E08C0E1FF09C016
:10008000E2FF0AC0D9FF0BC0DAFF12C0F3FF13C0B2
:10009000F4FF14C0FAFF15C0F5FF16C0F6FF17C035
:1000A000F7FF045006C0E0FF05C0D8FF10008E0E19
:1000B000006E42C001F041C002F0036A015209E142
:1000C00002C001F0026A080E005E015202E1006AFD
:1000D00008D0D89001BE04D0023601360006F9D708
:1000E000019E05EF01F04150D8B471D0006E45502B
:1000F000D8B46DD0002604E3810E002668E204D057
:100100007F0E005E64E363E042C049F04650491A46
:10011000428E468E44504802F4CF4BF04350470283
:10012000F4CF03F0F3CF4AF04802F3504B26F450DB
:100130004A22000E032244504702F3504B26F4504B
:100140004A22000E026A0322022242504802F35061
:100150004A26F4500322000E022242504702F35076
:100160000326F4500222000E016A01224450460286
:10017000F3504A26F4500322000E0222012243507B
:100180004602F3500326F4500222000E0122425090
:100190004602F3500226F4500122002A01BE05D087
:1001A0004A360336023601360006000E4AAE0AD041
:1001B000032A02220122015005E1025003E103500B
:1001C00001E1002A49BE018E49AE019E04D0006AB9
:1001D000016A026A036A1200D58E81B0FED7D59EED
:1001E0001AC0E9FF1BC0EAFFECCF40F0ED52EFCFA1
:1001F0003FF01AC0E9FF1BC0EAFFECCF03F0ED525D
:10020000EFCF41F003C042F052D7280E446E7E0E6D
:10021000436E0C0E426E790E416E03C048F002C070
:1002200047F001C046F000C045F05DDF03C029F093
:1002300002C028F001C027F000C026F01AC0E9FF74
:100240001BC0EAFFEC6AED52EF6AF29230EF00F069
:1002500035C03CF039503C1A3CAE05D0D894D8900B
:1002600035BED8802FD035C03CF038C03DF034507A
:100270003D5E06E03CAE26D0D850010AD86E22D0B2
:1002800039C03DF035503D5E06E03CAE1BD0D85045
:10029000010AD86E17D03AC03DF036503D5E06E0F8
:1002A0003CAE10D0D850010AD86E0CD03BC03DF007
:1002B00037503D5E06E03CAE05D0D850010AD86EFE
:1002C00001D0D89012008E0E006E3450005E35C002
:1002D00002F036C001F0028E005209E0D8900252BE
:1002E00002E1015204E002320132002EF7D735AEAE
:1002F00005D0011E021E012AD8B4022A1200016A8A
:10030000026A006A036A375002E1365018E0100EA4
:10031000386ED89034363536003603363750035CA5
:1003200002E13650005C07E33650005ED8A00306B9
:100330003750035ED88001360236382EEAD71200D5
:10034000EA6A340EE96EEF500DE0020E016E006AAB
:10035000002EFED7012EFBD7970E006E002EFED783
:10036000EF2EF3D71200376A366A7A0E356E880E92
:10037000346E2EC03BF02DC03AF02CC039F02BC0AB
:1003800038F066DFD8B033D12EC037F02DC036F04C
:100390002CC035F02BC034F03B6A3A6A200E396E1F
:1003A000820E386E55DF24E3196AF2BE198EF29E72
:1003B0002EC044F02DC043F02CC042F02BC041F0C1
:1003C000486A476A480E466E850E456E8CDE19BE39
:1003D000F28E03C037F002C036F001C035F000C025
:1003E00034F071DF02C030F001C02FF02F5056D032
:1003F0002EC037F02DC036F02CC035F02BC034F0B5
:100400003B6A3A6A480E396E850E386E21DF26E364
:10041000196AF2BE198EF29E2EC044F02DC043F030
:100420002CC042F02BC041F0486A476A200E466E4D
:10043000820E456E58DE19BEF28E03C037F002C040
:1004400036F001C035F000C034F03DDF02C030F0BE
:1004500001C02FF030C003F02F5020D02EC037F055
:100460002DC036F02CC035F02BC034F03B6A3A6A10
:100470007A0E396E880E386EEBDE10E32EC037F040
:100480002DC036F02CC035F02BC034F01CDF02C07C
:1004900030F001C02FF030C003F02F5030C035F0E5
:1004A0002FC034F0376A0A0E366E29DF00C033F0F1
:1004B00030C035F02FC034F0376A0A0E366E1FDFB9
:1004C00002C030F001C02FF030C035F02FC034F042
:1004D000376A0A0E366E13DF00C032F030C035F0D6
:1004E0002FC034F0376A0A0E366E09DF02C030F0D2
:1004F00001C02FF030C035F02FC034F0376A0A0E3B
:10050000366EFDDE00C031F08A888A868A942EC05D
:1005100037F02DC036F02CC035F02BC034F03B6ADC
:100520003A6A200E396E820E386E92DE0BE3036A51
:1005300031501C0FE96E000E0320EA6EEF50800967
:100540008C6E09D0036A31501C0FE96E000E032037
:10055000EA6EEFCF8CFF050E346EF2DE8A888A8455
:100560008A962EC037F02DC036F02CC035F02BC047
:1005700034F03B6A3A6A480E396E850E386E68DE92
:100580001BE32EC037F02DC036F02CC035F02BC049
:1005900034F03B6A3A6A200E396E820E386E58DEAD
:1005A0000BE2036A32501C0FE96E000E0320EA6E64
:1005B000EF5080098C6E09D0036A32501C0FE96E2F
:1005C000000E0320EA6EEFCF8CFF050E346EB8DE0E
:1005D0008A868A848A98036A33501C0FE96E000E5B
:1005E0000320EA6EEFCF8CFF050E346EA9DE42EFDA
:1005F00003F0F86AD09E078E700ED36ED3500F0EA4
:100600001B6ED60E1A6E296A286A276A266AC1509E
:10061000C00B0F09C16E070EB46E3F0E1C6E060EA6
:100620001D6E5B0E1E6E4F0E1F6E660E206E6D0EE3
:10063000216E7D0E226E070E236E7F0E246E670ED6
:10064000256E010E936E956AD00EF26ED56A1AC0B1
:10065000E9FF1BC0EAFFEC6AED52EF6A8A82060EE0
:10066000006E002EFED700008A922A6A2A501308D4
:100670000BE329C02EF028C02DF027C02CF026C097
:0C0680002BF071D62A2AF2D7E9D703002C
:020000040030CA
:0E00000020C93E1E0007A1000FC00FE00F40F8
:00000001FF
;PIC18F4550
;CRC=D414  CREATED="12-feb.-24 21:42"
