:040000009BEF00F082
:08000800046ED8CF05F0E0CF33
:1000100006F00001E9CF0CF0EACF07F0E1CF08F0DD
:10002000E2CF09F0D9CF0AF0DACF0BF0F3CF12F01C
:10003000F4CF13F0FACF14F0F5CF15F0F6CF16F099
:10004000F7CF17F000C00EF001C00FF002C010F0A3
:1000500003C011F0F2A830EF00F0F2B278EF00F038
:10006000F0A636EF00F0F0B07DEF00F0F0A83CEF26
:1000700000F0F0B282EF00F09DAA42EF00F09EBACD
:1000800069EF00F00EC000F00FC001F010C002F0E8
:1000900011C003F00CC0E9FF07C0EAFF078E08C0DB
:1000A000E1FF09C0E2FF0AC0D9FF0BC0DAFF12C0AE
:1000B000F3FF13C0F4FF14C0FAFF15C0F5FF16C01C
:1000C000F6FF17C0F7FF045006C0E0FF05C0D8FFD9
:1000D00010009EAAFED7AECF22F022506D0801E19B
:1000E0008A869E9A42EF00F09EA8FED7AD6E12005F
:1000F000430EFADFF29242EF00F0310EF5DFF0909E
:1001000042EF00F0320EF0DFF09242EF00F0EA6AC8
:10011000210EE96EEF500DE0020E016E006A002E16
:10012000FED7012EFBD7970E006E002EFED7EF2EC6
:10013000F3D7FEEF00F0F86AD09E078E700ED36EF4
:10014000D350B8960C0EAF6EA20EAC6E900EAB6E86
:100150001A90C150C00B0F09C16E070EB46E070E86
:10016000936E926AD00EF26E180EF06E9F8A9D8A80
:10017000D08E1B6A1C6A1D6A1E6A1F6A206A81A2D1
:1001800007D01CC003F01B501B2AD8B41C2A02D075
:100190001C6A1B6A81A407D01EC003F01D501D2AD3
:1001A000D8B41E2A02D01E6A1D6A8AA607D020C0B3
:1001B00003F01F501F2AD8B4202A02D0206A1F6AD9
:1001C0001B50C80806E11C5204E1310E8DDF1C6A89
:1001D0001B6A1D50C80806E11E5204E1320E84DF7E
:1001E0001E6A1D6A1F50D00806E12050070803E16F
:1001F0008A96206A1F6A010E216E89D7C0D7030034
:020000040030CA
:0E00000020C93E1E0007A1000FC00FE00F40F8
:00000001FF
;PIC18F4550
;CRC=2283  CREATED="23-mar.-24 13:10"
