:10000000EEEF00F0486F6C610000EA6A0B0EE96EDB
:10001000EF50D8B419EF00F0020E016E006A002E06
:10002000FED7012EFBD7970E006E002EFED7EF2EC7
:10003000F3D712001038F00B006E0F0E8C14001066
:100040008C6E00008C8000D000D08C901200835009
:10005000006E00380F0B016E12000F0E9514F009A0
:10006000956E8C8400008C800000F1DF01C010F0E0
:100070008C9000008C8000D0EADF01C00FF08C90E3
:100080000F0E9514956E1038006EF00E001600508D
:100090000F10016E51EF00F09590959295948C920F
:1000A000DCD701C00FF001BEFBD78C920DB08C8263
:1000B00000008C9400008C900E380F6E0F0E0F16FF
:1000C0000FC010F0B7DF0E500F0B0F6E106EB2DFC7
:1000D0001200280E076E0C0E086E010E096E060E39
:1000E0000A6E8C908C928C940F0E9514956E959050
:1000F000959295940F0E0B6E88DF010E066E0650DA
:10010000030808E3030E106E95DF050E0B6E7DDF0E
:10011000062AF5D7020E106E8DDF050E0B6E75DF09
:10012000066A065003080DE3036A0650070FE96EDE
:10013000000E0320EA6EEFCF0EF00D6AADDF062A47
:10014000F0D7FDEF00F00A2C01D003D0400E0B6E6B
:1001500001D00B6A010E095C0B260B5080090C6E56
:100160000D6A0E6E99DF12000850070A07E00B0AAD
:100170000AE0060A10E0020A14E018D0010E096E27
:100180000A6EE1DF18D00D6A010E0E6E85DF020ED9
:100190000B6E3BDF10D0010E096E020E0A6ED3DF2C
:1001A0000AD00D6A100E0E6E77DF05D0010E0D6EAF
:1001B00008C00EF071DFE7EF00F00900F5520CE027
:1001C000F6CF06F0F7CF07F0F5CF08F0CDD706C091
:1001D000F6FF07C0F7FFF1D702EF01F0F86AD09EF3
:1001E000700ED36ED350056A046AC150C00B0F095C
:1001F000C16E070EB46E966A6CD7040EF66E000ED2
:08020000F76EDBD7FFD7030006
:020000040030CA
:0E00000020C93E1E0007A1000FC00FE00F40F8
:00000001FF
;PIC18F4550
;CRC=A82F  CREATED="20-feb.-24 11:38"
