:1000000074EF00F00D50016A0C5CD8B00CEF00F0FA
:100010000CC000F019EF00F0006A080E0E6E0C36EE
:1000200000360D50005CD8B0006E01360E2E0FEF7A
:1000300000F01200200E07A8300E086E06C000F077
:1000400006AE08D0001E002A00C006F02D0E086E75
:10005000078E0780015006C00CF0640E0D6ED2DFD3
:1000600000C006F0300E0124096E06C00CF00A0E26
:100070000D6EC8DF300E00240B6E300E01240A6EA8
:1000800008C000F0300E095C04E0078207BE078458
:1000900012D008C009F0200E086E300E0A5C04E091
:1000A000078007BE078207D0D8A4078004E109C0F3
:1000B0000AF0200E096E07B405D007B207D007B0CA
:1000C00009D00CD008509EA8FED7AD6E09509EA84E
:1000D000FED7AD6E0A509EA8FED7AD6E0B509EA8FF
:1000E000FED7AD6E8FEF00F0F86AD09E700ED36E23
:1000F000D350B8960C0EAF6EA20EAC6E900EAB6ED7
:10010000C150C00B0F09C16E070EB46E050E056E0F
:10011000080E056E05C006F0180E076E8BD7F6D7D1
:020120000300DA
:020000040030CA
:0E00000027C83E1E0007A1000FC00FE00F40F2
:00000001FF
;PIC18F4550
;CRC=8DCE  CREATED="09-abr.-24 10:32"
