:04000000ECEF00F031
:08000800046ED8CF05F0E0CF33
:1000100006F00001E9CF0CF0EACF07F0E1CF08F0DD
:10002000E2CF09F0D9CF0AF0DACF0BF0F3CF12F01C
:10003000F4CF13F0FACF14F0F5CF15F0F6CF16F099
:10004000F7CF17F000C00EF001C00FF002C010F0A3
:1000500003C011F09DA230EF00F09EB2C1EF00F09E
:10006000F2A836EF00F0F2B25DEF00F00EC000F043
:100070000FC001F010C002F011C003F00CC0E9FF86
:1000800007C0EAFF078E08C0E1FF09C0E2FF0AC00F
:10009000D9FF0BC0DAFF12C0F3FF13C0F4FF14C086
:1000A000FAFF15C0F5FF16C0F6FF17C0F7FF0450A2
:1000B00006C0E0FF05C0D8FF1000CAA408D0F1AC0C
:1000C00003D01B80F19C02D01B90F18C0CD0010E50
:1000D000196E1A6A1B901AB01B80210E006E002E3A
:1000E000FED7CA84F18CF29236EF00F01F50016AFD
:1000F0001E5C03E21EC000F00CD0006A080E206EE9
:100100001E3600361F50005CD8B0006E0136202E1F
:10011000F7D7120001501CC01EF0640E1F6EE6DF00
:1001200000C01CF00150300E07E11DA20DD01DB61D
:100130000BD01DB8200E03D01D961D981D800126E2
:1001400001509EA8FED7AD6E1CC01EF00A0E1F6E99
:10015000CDDF00C01CF00150300E06E11DB609D005
:100160001DA007D01DB8200E012601509EA8FED765
:10017000AD6E300E1C261C509EA8FED7AD6EDAEF79
:1001800000F0195220E1F19CCA94270E9EA8FED7D8
:10019000AD6E1A509EA8FED7AD6E270E9EA8FED754
:1001A000AD6E200E9EA8FED7AD6E1AC01CF01B0EC1
:1001B0001D6EB0D70D0E9EA8FED7AD6E0A0E9EA87E
:1001C000FED7AD6E06D01BA002D019501A12D890DF
:1001D00019369E9236EF00F0F86AD09E078E700EA8
:1001E000D36ED350B8960C0EAF6EA20EAC6E900EBE
:1001F000AB6E010E196E1A6A1B90C150C00B0F092D
:10020000C16E070EB46E956A010E936ED00EF26E3B
:100210009D82030ECA6E0C0ECB6E1AC08CFFFDD7EA
:020220000300D9
:020000040030CA
:0E00000020C93E1E0087A1000FC00FE00F4078
:00000001FF
;PIC18F4550
;CRC=DD68  CREATED="01-mar.-24 20:24"
