:0400000020EF01F0FC
:08000800046ED8CF05F0E0CF33
:1000100006F00001E9CF0CF0EACF07F0E1CF08F0DD
:10002000E2CF09F0D9CF0AF0DACF0BF0F3CF12F01C
:10003000F4CF13F0FACF14F0F5CF15F0F6CF16F099
:10004000F7CF17F000C00EF001C00FF002C010F0A3
:1000500003C011F09DA230EF00F09EB291EF00F0CE
:10006000F2A836EF00F0F2B25DEF00F00EC000F043
:100070000FC001F010C002F011C003F00CC0E9FF86
:1000800007C0EAFF078E08C0E1FF09C0E2FF0AC00F
:10009000D9FF0BC0DAFF12C0F3FF13C0F4FF14C086
:1000A000FAFF15C0F5FF16C0F6FF17C0F7FF0450A2
:1000B00006C0E0FF05C0D8FF1000CAA409D0F1AC0B
:1000C00003D01B80F19C02D01B90F18C0DD00CD082
:1000D000010E196E1A6A1B901AB01B80210E006E59
:1000E000002EFED7CA84F18CF29236EF00F02B502E
:1000F000070B006E2B30016E013201321F0E01160C
:1001000001502C24E96E000E2D20EA6EEFCF01F095
:10011000002A01D00132002EFDD7010E01169EEFFC
:1001200000F01BA219D01E5009080CE38A921E5041
:100130001E2A2B6E2D6A1C0E2C6ED9D701A001D061
:100140008A8208D0CA941E6A1B921EB01B821BA210
:1001500001D0CA840ED00DD0195205E1F19CCA9489
:100160001AC08CFF06D01BA002D019501A12D890CA
:1001700019369E9236EF00F04361726163746572C6
:1001800020726563696269646F202D2D3E202563AE
:100190000D0A00002550070B006E2530016E01325C
:1001A00001321F0E011601502724E96E000E28208F
:1001B000EA6E016A012A002A01D00136002EFDD71D
:1001C000265203E00150EF1203D0011E0150EF163A
:1001D00004EF01F0010E236E2350080817E3010E0F
:1001E000235C016E22C000F0015204E0D89000327E
:1001F000012EFCD70050010B246E23C025F0266E83
:10020000286A1C0E276EC6D7232AE6D7CA841B820B
:100210001BB2FED7060E006E002EFED700001200A5
:100220000900F6CF20F0F7CF21F0F5CF22F0D2DF92
:1002300020C0F6FF21C0F7FF1F2EF2D74DEF01F0CF
:10024000F86AD09E078E700ED36ED350010E196ED1
:100250001A6A1B901B92C150C00B0F09C16E070E8A
:10026000B46E1C6A020E1D6E1E6A956A050E936EB0
:100270008A828C6AD00EF26E9D82330ECB6ECC6A6F
:10028000030ECA6E81A412D081B4FED7780EF66E2A
:10029000010EF76E160E1F6EC3D71AC022F09ADF3A
:1002A0000D0E226E97DF0A0E226E94DFEBD703004D
:020000040030CA
:0E00000020C93E1E0007A1000FC00FE00F40F8
:00000001FF
;PIC18F4550
;CRC=8AFC  CREATED="05-mar.-24 10:13"
