:0400000018EF06F0FF
:08000800046ED8CF05F0E0CF33
:1000100006F00001E9CF0CF0EACF07F0E1CF08F0DD
:10002000E2CF09F0D9CF0AF0DACF0BF0F3CF12F01C
:10003000F4CF13F0FACF14F0F5CF15F0F6CF16F099
:10004000F7CF17F000C00EF001C00FF002C010F0A3
:1000500003C011F09DAA30EF00F09EBA6EEF00F0E1
:10006000A0A036EF00F0A1B05DEF00F00EC000F0F0
:100070000FC001F010C002F011C003F00CC0E9FF86
:1000800007C0EAFF078E08C0E1FF09C0E2FF0AC00F
:10009000D9FF0BC0DAFF12C0F3FF13C0F4FF14C086
:1000A000FAFF15C0F5FF16C0F6FF17C0F7FF0450A2
:1000B00006C0E0FF05C0D8FF1000BCCF1CF0BBCFCE
:1000C0001BF0BFCF1AF0BECF19F019501B5C1D6E8C
:1000D0001A501C581E6EA19036EF00F09EAAFED753
:1000E000AECF5CF05C50230801E124809E9A36EF8D
:1000F00000F00C42414E444120534550415241448E
:100100004F524100436F6D656E7A6172202020204E
:100110002D2D3E00202020202020202020202020C7
:10012000202020000C423A202534757C20523A20B1
:10013000253475000A473A202534757C20423A2040
:10014000253475000C436F6C6F723A204E656772F0
:100150006F0000000C436F6C6F723A20526F6A6F31
:1001600000000C436F6C6F723A2056657264650034
:1001700000000C436F6C6F723A20417A756C00007E
:10018000EA6A3F0EE96EEF500DE0020E016E006A62
:10019000002EFED7012EFBD7970E006E002EFED745
:1001A000EF2EF3D712004538F00B006E0F0E8C14B3
:1001B00000108C6E00008C8000D000D08C9012005B
:1001C0008350006E00380F0B016E12000F0E951455
:1001D000F009956E8C8400008C800000F1DF01C076
:1001E00045F08C9000008C8000D0EADF01C044F024
:1001F0008C900F0E9514956E4538006EF00E00161B
:1002000000504410016E0AEF01F09590959295947C
:100210008C92DCD701C044F001BEFBD78C9242B077
:100220008C8200008C9400008C904338446E0F0E3A
:10023000441644C045F0B7DF43500F0B446E456E83
:10024000B2DF1200280E3B6E0C0E3C6E010E3D6EAE
:10025000060E3E6E8C908C928C940F0E9514956EBB
:100260009590959295940F0E3F6E8ADF010E3A6E2F
:100270003A50030808E3030E456E95DF050E3F6E06
:100280007FDF3A2AF5D7020E456E8DDF050E3F6EF1
:1002900077DF3A6A3A5003080DE3036A3A503B0F9E
:1002A000E96E000E0320EA6EEFCF43F0426AADDF45
:1002B0003A2AF0D745EF06F03F2C01D003D0400E8C
:1002C000406E01D0406A010E3E5C402640508009DD
:1002D000416E426A436E99DF12003D50070A07E003
:1002E0000B0A0AE0060A10E0020A14E018D0010E18
:1002F0003E6E3F6EE1DF18D0426A010E436E85DF2D
:10030000020E3F6E3DDF10D0010E3E6E020E3F6EBC
:10031000D3DF0AD0426A100E436E77DF05D0010E9C
:10032000426E3DC043F071DF12000900F5520CE04F
:10033000F6CF3AF0F7CF3BF0F5CF3DF0CEDF3AC045
:10034000F6FF3BC0F7FFF1D712000900F6CF3BF0F4
:10035000F7CF3CF0F5CF3DF0C0DF3BC0F6FF3CC02F
:10036000F7FF3A2EF2D712003D50016A3C5C03E2DF
:100370003CC000F00CD0006A080E3E6E3C360036E1
:100380003D50005CD8B0006E01363E2EF7D712000B
:1003900001503AC03CF0640E3D6EE6DF00C03AF01A
:1003A0000150300E07E13BA20CD03BB60AD03BB85F
:1003B000200E03D03B963B983B80012601C03DF0C8
:1003C0008CDF3AC03CF00A0E3D6ECEDF00C03AF042
:1003D0000150300E06E13BB608D03BA006D03BB83A
:1003E000200E012601C03DF078DF300E3A263AC0DB
:1003F0003DF073DF12008E0E006E4DC001F04CC058
:1004000002F0036A015209E102C001F0026A080E1B
:10041000005E015202E1006A08D0D89001BE04D00B
:10042000023601360006F9D7019ED8EF04F04C5091
:10043000D8B471D0006E5050D8B46DD0002604E30B
:10044000810E002668E204D07F0E005E64E363E064
:100450004DC054F05150541A4D8E518E4F5053028E
:10046000F4CF56F04E505202F4CF03F0F3CF55F0D4
:100470005302F3505626F4505522000E03224F50DB
:100480005202F3505626F4505522000E026A0322FF
:1004900002224D505302F3505526F4500322000E11
:1004A00002224D505202F3500326F4500222000E55
:1004B000016A01224F505102F3505526F450032295
:1004C000000E022201224E505102F3500326F45036
:1004D0000222000E01224D505102F3500226F45028
:1004E0000122002A01BE05D05536033602360136F8
:1004F0000006000E55AE0AD0032A02220122015046
:1005000005E1025003E1035001E1002A54BE018ECF
:1005100054AE019E04D0006A016A026A036AE9EFE0
:1005200004F04E50D8B4A5D05A6E5250D8B4A1D0D1
:100530005A5E05E37F0E5A26D8B09BD006D0810EB6
:100540005A5ED8A096D0D8B494D05AC000F0016AB0
:10055000026A036A596A4FC058F0588E50C057F06B
:1005600051C056F0190E5A6E5550565E0DE2010EEE
:10057000575E0AE2585E08E2595E06E2592A582A96
:10058000572A5550562628D05450575E12E2010E75
:10059000585E0FE2595E0DE2592A582A54505726E8
:1005A0005550562619E3572A17E1582A15E1592ABA
:1005B00013D053508009585E0EE2010E595E0BE2D3
:1005C000592A53508009582654505726E9E3582A8F
:1005D000E7E1592AE5D703805A2E01D00BD0D890F5
:1005E0005636573658365936D890033602360136C5
:1005F0005B36BAD75BA006D0D89001320232033204
:100600005B3202D0000635E05BBE1ED0D890563675
:100610005736583659365550565E07E2010E575E2A
:1006200004E2585E02E2595E1AE35450575E05E256
:10063000010E585E02E2595E12E353508009585E83
:1006400003E2010E595E0BE3032A09E1022A07E1E6
:10065000012A05E1002A0DE00132023203324FC0C7
:100660005AF053505A1A5AAE02D0018E06D0019E4B
:1006700004D0006A016A026A036A1200800ED8B2CE
:10068000511A566A576A4DC055F05150551A4C5080
:10069000D8B4DCD0546E006E5050D8B4E0D0545E64
:1006A000D8B481D03DE351C05AF05A8E52C059F0AF
:1006B00053C058F0576AD8905A325932583257328C
:1006C000542EF8D755AE03D05680DDD056905490B6
:1006D0005688EA6A4F0EE96EE9D0569855BE0AD0A0
:1006E00054A013D05A32593258325732002AD8B453
:1006F000C5D00BD05ABE0CD0D89057365836593684
:100700005A360006D8B4BAD0F5D7568C6BD0569C62
:100710004DC055F04DAE02D05A8EA9D05A9EA7D0EA
:1007200050C054F050C000F04C50545E4DC05AF0D0
:100730005A8E4EC059F04FC058F0576AD8905A326E
:10074000593258325732542EF8D755AE03D056820C
:100750009AD056925490568AEA6A530EE96EA6D001
:10076000569A55BE0AD054A013D05A325932583234
:100770005732002AD8B482D00BD05ABE0CD0D890B1
:100780005736583659365A360006D8B477D0F5D78A
:10079000568E28D0569E51C055F051AE02D05A8E7A
:1007A00066D05A9E64D051C05AF05A8E52C059F049
:1007B00053C058F055AE04D05A9E568464D0569417
:1007C000576A5490EA6A4F0EE96E70D055BE1CD03D
:1007D0004DC055F054A006D05A32593258325732D3
:1007E000002A4CE057AE0BD0582A09E1592A07E1FC
:1007F0005A2A05E15A3259325832002A3FE056BC93
:1008000086D756BEC7D71CD0800E5A1A5AAE04D00F
:100810003AD051C055F00AD04DC055F05A5206E1B9
:10082000595204E1585202E1006A21D05ABE08D060
:10083000D8905736583659365A36002EF7D71ED02C
:1008400055AE02D05A8E13D05A9E11D050C000F02F
:1008500051C05AF052C059F053C058F008D04CC0A3
:1008600000F04DC05AF04EC059F04FC058F05AC079
:1008700001F059C002F058C003F034D0006A016A98
:10088000026A036A2FD0576A581E591E5A1E571EF5
:10089000572A05E1582A03E1592A01E15A2A56B09C
:1008A00015D756B256D756B48AD7B3D7EF50582675
:1008B00005E3592A03E15A2AD8B45480ED52EF5087
:1008C000592603E35A2AD8B45480ED52EF50EFBEB4
:1008D00001D0800A5A26D8B0548056B8FED656BAEF
:1008E0003FD774D709EF05F04DC054F05150541A5A
:1008F00054AE05D0D894D8904DBED8802FD04DC0DE
:1009000054F050C055F04C50555E06E054AE26D021
:10091000D850010AD86E22D051C055F04D50555EC6
:1009200006E054AE1BD0D850010AD86E17D052C082
:1009300055F04E50555E06E054AE10D0D850010A26
:10094000D86E0CD053C055F04F50555E06E054AEF3
:1009500005D0D850010AD86E01D0D8901200466A4E
:1009600046500208D8A082D04A6A496A486A476A53
:10097000465005E0010A08E0030A0BE00FD096920A
:100980008D9296948D940AD096928D9296948D84A1
:1009900005D096928D8296948D8400D0A0804B6A6B
:1009A0004B50310840E31EC04DF01DC04CF023D524
:1009B00003C04FF002C04EF001C04DF000C04CF03B
:1009C000BD0E536E370E526E060E516E6B0E506E8C
:1009D0002ED5516A506A4F6A7F0E4E6E03C055F095
:1009E00002C054F001C053F000C052F09ADDD8921A
:1009F0004AC04FF049C04EF048C04DF047C04CF0DF
:100A000003C053F002C052F001C051F000C050F0DA
:100A100035D603C04AF002C049F001C048F000C01A
:100A200047F04B2ABDD7A0904650040DF350036AFF
:100A30003A0FE96E000E0320EA6E4AC051F049C039
:100A400050F048C04FF047C04EF0556A546A480E07
:100A5000536E840E526E65DD00C0EFFF01C0ECFFE7
:100A600002C0ECFF03C0ECFF462A7AD73DC04FF02E
:100A70003CC04EF03BC04DF03AC04CF0536A526A55
:100A80007A0E516E870E506E2FDF01E226E141C0D3
:100A90004FF040C04EF03FC04DF03EC04CF0536AA6
:100AA000526A0C0E516E880E506E1EDF01E215E187
:100AB00045C04FF044C04EF043C04DF042C04CF032
:100AC000536A526A7A0E516E870E506E0DDF01E244
:100AD00004E1000E016E77D076D041C04FF040C0E7
:100AE0004EF03FC04DF03EC04CF03DC053F03CC016
:100AF00052F03BC051F03AC050F0F6DE16E345C06C
:100B00004FF044C04EF043C04DF042C04CF03DC0E9
:100B100053F03CC052F03BC051F03AC050F0E4DE1C
:100B200004E3010E016E4FD04ED03DC04FF03CC0EB
:100B30004EF03BC04DF03AC04CF041C053F040C0C5
:100B400052F03FC051F03EC050F0CEDE16E345C03B
:100B50004FF044C04EF043C04DF042C04CF041C095
:100B600053F040C052F03FC051F03EC050F0BCDEE8
:100B700004E3030E016E27D026D03DC04FF03CC0E9
:100B80004EF03BC04DF03AC04CF045C053F044C06D
:100B900052F043C051F042C050F0A6DE14E341C011
:100BA0004FF040C04EF03FC04DF03EC04CF045C04D
:100BB00053F044C052F043C051F042C050F094DEB4
:100BC00002E3020E016EE4EF06F026C0EAFF25C044
:100BD000E9FF3CC0EFFFE92AD8B4EA2AEF6A252AE8
:100BE000D8B4262AFEEF05F00900F5520CE0F6CF46
:100BF0003AF0F7CF3BF0F5CF3CF0E7D73AC0F6FF3D
:100C00003BC0F7FFF1D71200EF5210E0EACF3BF004
:100C1000E9CF3AF0EFCF3DF06DEC01F03BC0EAFFD9
:100C20003AC0E9FFE92AD8B4EA2AEED72CEF07F058
:100C3000F86AD09E078E700ED36ED350B8960C0E05
:100C4000AF6EA20EAC6E900EAB6E24802482266A2C
:100C5000256AC150C00B0F09C16E070EB46E1F6A22
:100C6000206A216A226A9484BD6A050EBD6EB76A45
:100C7000B66A9482BA6A040EBA6E850ECD6EA080F2
:100C80009D8AC00EF21222EF01F0F20EF66E000EF7
:100C9000F76E95EC01F0286A276A2980928080B06F
:100CA00031D0010E3E6E020E3F6E5CEC01F029A0C9
:100CB00007D0040EF66E010EF76E95EC01F006D02B
:100CC000140EF66E010EF76E95EC01F0010E3F6EFC
:100CD000C0EC00F0285203E12750C7080CE2000ED8
:100CE00029B0010E010A016E2990E8B02980286A16
:100CF000276A275006D028C003F02750272AD8B4E7
:100D0000282ACCD7928080B0FDD724A259D0240EB7
:100D1000F66E010EF76E040E3A6EA5EC01F0010EB0
:100D20003A6E200E3D6E6DEC01F03A2EFAD71FC0E0
:100D30003AF0130E3B6EC8EC01F02B0EF66E010E6E
:100D4000F76E050E3A6EA5EC01F0010E3A6E200E1C
:100D50003D6E6DEC01F03A2EFAD720C03AF0130E3A
:100D60003B6EC8EC01F0340EF66E010EF76E040E09
:100D70003A6EA5EC01F0010E3A6E200E3D6E6DEC60
:100D800001F03A2EFAD721C03AF0130E3B6EC8ECB0
:100D900001F03B0EF66E010EF76E050E3A6EA5ECF5
:100DA00001F0010E3A6E200E3D6E6DEC01F03A2E10
:100DB000FAD722C03AF0130E3B6EC8EC01F0249231
:100DC00024A052D02490CBD501C023F0300E232490
:100DD0003A6E2A0E9EA8FED7AD6E3A509EA8FED758
:100DE000AD6E2482036A23501F0FE96E000E0320AC
:100DF000EA6EEF2A235007E0010A0EE0030A15E02D
:100E0000010A1CE024D0266A2A0E256E440EF66ED6
:100E1000010EF76EE9DE1CD0266A2A0E256E540EEE
:100E2000F66E010EF76EE0DE13D0266A2A0E256EEE
:100E3000620EF66E010EF76ED7DE0AD0266A2A0E13
:100E4000256E720EF66E010EF76ECEDE01D00DD05D
:100E5000EA6A2A0EE96ED8D6040E3A6EFA0E3F6E92
:0C0E6000C0EC00F03A2EFAD750D7030087
:020000040030CA
:0E00000020C93E1E0007A1000FC00FE00F40F8
:00000001FF
;PIC18F4550
;CRC=80DD  CREATED="23-abr.-24 16:25"
