:1000000017EF00F0EA6A070EE96EEF50D8B416EF6A
:1000100000F0020E016E006A002EFED7012EFBD703
:10002000970E006E002EFED7EF2EF3D71200F86A5F
:10003000D09E700ED36ED350C150C00B0F09C16E4D
:10004000070EB46E066A056A066A010E056E958093
:1000500083A015D0958283B212D0065203E10550D9
:10006000800803E2066A010E056E936A05C08AFFE6
:10007000C80E076EC7DFD89005360636E8D7936AF4
:100080008A6A066A800E056E958083B014D09582C8
:1000900083A211D0055205E1065203E1066A800EE3
:1000A000056E936A05C08AFFC80E076EABDFD89055
:1000B00006320532E9D7936A8A6A066A010E056E2E
:1000C000958083B012D0958283B20FD0936A05C019
:1000D0008AFF640E076E96DF0650000802E2066A89
:1000E000056A052AD8B4062AEBD7936A8A6A010EF4
:1000F000066E056A958083A016D0958283A213D0E0
:10010000936A05C08AFF640E076E7CDF065206E123
:100110000550010803E3010E066E056A0550D8B4C8
:0E01200006060506E7D7936A8A6A8ED70300A3
:020000040030CA
:0E00000020C93E1E0007A1000FC00FE00F40F8
:00000001FF
;PIC18F4550
;CRC=9D35  CREATED="12-ago.-23 21:06"
