:0400000015EF0AF0FE
:08000800046ED8CF05F0E0CF33
:1000100006F00001E9CF0CF0EACF07F0E1CF08F0DD
:10002000E2CF09F0D9CF0AF0DACF0BF0F3CF12F01C
:10003000F4CF13F0FACF14F0F5CF15F0F6CF16F099
:10004000F7CF17F000C00EF001C00FF002C010F0A3
:1000500003C011F09DAA30EF00F09EBA57EF00F0F8
:100060000EC000F00FC001F010C002F011C003F08C
:100070000CC0E9FF07C0EAFF078E08C0E1FF09C016
:10008000E2FF0AC0D9FF0BC0DAFF12C0F3FF13C0B2
:10009000F4FF14C0FAFF15C0F5FF16C0F6FF17C035
:1000A000F7FF045006C0E0FF05C0D8FF1000300E77
:1000B0002A5CFB0F4DE2050FABEF00F09EAAFED7C6
:1000C000AECF2AF045D02C50300A03E0030A06E0F8
:1000D00009D09EAAFED7AECF2CF004D09EAAFED7A0
:1000E000AECF32F035D02E50300A03E0030A06E0DE
:1000F00009D09EAAFED7AECF2EF004D09EAAFED77E
:10010000AECF34F025D03050300A03E0020A06E0CA
:100110001ED09EAAFED7AECF30F019D0036A295068
:10012000270FE96E000E0320EA6E9EAAFED7AECF1F
:10013000EFFF2950292A036A270FE96E000E0320DA
:10014000EA6EEFCF5FF05F509EA8FED7AD6E00D095
:100150009E9A30EF00F0E824F76AF736710FF66EDA
:10016000010EF7220A00F550FA6E0800F550F96EFC
:10017000BC005001C600E60006010D0A0D0A4D45FF
:100180004E55205052494E434950414C0D0A0D0ADC
:10019000312E20496D7072696D69722076616C6FC5
:1001A0007220506F74656E63696F6D6574726F0D48
:1001B0000A0D0A322E204D6F746F72206465206321
:1001C0006F727269656E74652064697265637461CB
:1001D0000D0A0D0A332E204D6F746F72206120704E
:1001E00061736F730D0A0D0A342E20446973706CAD
:1001F0006179730D0A2000000D0A496E67726573FC
:10020000652070726573696F6E6520656C206E7510
:100210006D65726F206465206C61206F7063696F1B
:100220006E207175652064657365610D0A000D0AA5
:100230000D0A454C2056414C4F522044454C20411C
:1002400044432045533A20256C690D0A0D0A515547
:1002500045204551554956414C45204120256620B1
:10026000566F6C74730D0A000D0A0D0A4D4F544FF2
:100270005220444520434F525249454E5445204454
:100280004952454354410D0A0D0A312E20456E63F3
:10029000656E6465722F417061676172206D6F7465
:1002A0006F720D0A0D0A322E2043616D6269617210
:1002B0002073656E7469646F206465206769726F6E
:1002C0000D0A0D0A332E204D6F64696669636172F1
:1002D0002076616C6F722044757479204369636C79
:1002E000650D0A000D0A496E6772657365207072AC
:1002F0006573696F6E6520656C206E756D65726FD4
:10030000206465206C61206F7063696F6E20717569
:10031000652064657365612C207061726120736172
:100320006C69722070726573696F6E65202A0D0AA0
:1003300000000D0A50726F6365736F204578697411
:100340006F736F0D0A000D0A50726F6365736F2033
:10035000457869746F736F0D0A000D0A0D0A5641D6
:100360004C4F522044454C20445554592043494356
:100370004C45200D0A0D0A312E2030202525200D58
:100380000A0D0A322E203330202525200D0A0D0AB1
:10039000332E20373020252520200D0A0D0A342E3B
:1003A000203130302025250D0A000D0A507265736A
:1003B000696F6E6520656C206E756D65726F206467
:1003C00065206C61206F7063696F6E2071756520A8
:1003D00064657365612C20706172612073616C6962
:1003E000722070726573696F6E65202A0D0A0000B5
:1003F0000D0A50726F6365736F20457869746F736F
:100400006F0D0A000D0A50726F6365736F20457897
:1004100069746F736F0D0A000D0A50726F63657314
:100420006F20457869746F736F0D0A000D0A507262
:100430006F6365736F20457869746F736F0D0A0081
:100440000D0A0D0A4D4F544F522041205041534F39
:10045000530D0A0D0A312E20456E63656E64657278
:100460002F417061676172206D6F746F720D0A0D9C
:100470000A322E2043616D626961722073656E7469
:1004800069646F206465206769726F0D0A0D0A3315
:100490002E204D6F646966696361722076656C6FAA
:1004A00063696461640D0A000D0A496E67726573C1
:1004B000652070726573696F6E6520656C206E755E
:1004C0006D65726F206465206C61206F7063696F69
:1004D0006E207175652064657365612C2070617292
:1004E000612073616C69722070726573696F6E65EB
:1004F000202A0D0A00000D0A50726F6365736F2089
:10050000457869746F736F0D0A000D0A50726F633E
:1005100065736F20457869746F736F0D0A000D0A5B
:100520000D0A56454C4F43494441442044454C2014
:100530004D4F544F522041205041534F53200D0AEC
:100540000D0A312E204D7579206C656E746F200D6B
:100550000A0D0A322E204C656E746F200D0A0D0AAA
:10056000332E2052617069646F20200D0A0D0A3409
:100570002E20456E206672696567610D0A000D0ABE
:1005800050726573696F6E6520656C206E756D6560
:10059000726F206465206C61206F7063696F6E20DC
:1005A0007175652064657365612C207061726120CE
:1005B00073616C69722070726573696F6E65202A51
:1005C0000D0A00000D0A50726F6365736F20457845
:1005D00069746F736F0D0A000D0A50726F63657353
:1005E0006F20457869746F736F0D0A000D0A5072A1
:1005F0006F6365736F20457869746F736F0D0A00C0
:100600000D0A50726F6365736F20457869746F735C
:100610006F0D0A000D0A0D0A434F4E54524F4C20E5
:10062000444520444953504C4159530D0A0D0A3159
:100630002E20456E63656E6465722F41706167613F
:100640007220646973706C61790D0A0D0A322E2074
:10065000496E6772657361722064696769746F734C
:100660000D0A00000D0A496E67726573652070728D
:100670006573696F6E6520656C206E756D65726F50
:10068000206465206C61206F7063696F6E207175E6
:10069000652064657365612C2070617261207361EF
:1006A0006C69722070726573696F6E65202A0D0A1D
:1006B00000000D0A50726F6365736F20457869748E
:1006C0006F736F0D0A000D0A0D0A496E677265732C
:1006D00065206C6F732032206E756D65726F7320AC
:1006E0007061726120656C20646973706C61793A25
:1006F00020000D0A0D0A496E6772657365206E75DC
:100700006D65726F732076616C69646F73000900A8
:10071000F5520DE0F6CF41F0F7CF42F0F5509EA82C
:10072000FED7AD6E41C0F6FF42C0F7FFF0D7120012
:100730008E0E006E42C001F041C002F0036A015209
:1007400009E102C001F0026A080E005E015202E1F6
:10075000006A08D0D89001BE04D0023601360006E7
:10076000F9D7019EB7EF06F04550D8B4A5D0516E29
:100770004950D8B4A1D0515E05E37F0E5126D8B0C0
:100780009BD006D0810E515ED8A096D0D8B494D01C
:1007900051C000F0016A026A036A506A46C04FF015
:1007A0004F8E47C04EF048C04DF0190E516E4C5060
:1007B0004D5E0DE2010E4E5E0AE24F5E08E2505EB3
:1007C00006E2502A4F2A4E2A4C504D2628D04B5034
:1007D0004E5E12E2010E4F5E0FE2505E0DE2502AB5
:1007E0004F2A4B504E264C504D2619E34E2A17E106
:1007F0004F2A15E1502A13D04A5080094F5E0EE26D
:10080000010E505E0BE2502A4A5080094F264B5091
:100810004E26E9E34F2AE7E1502AE5D70380512E1F
:1008200001D00BD0D8904D364E364F365036D8903A
:100830000336023601365236BAD752A006D0D890C7
:10084000013202320332523202D0000635E052BE8B
:100850001ED0D8904D364E364F3650364C504D5EE9
:1008600007E2010E4E5E04E24F5E02E2505E1AE3C2
:100870004B504E5E05E2010E4F5E02E2505E12E307
:100880004A5080094F5E03E2010E505E0BE3032ADB
:1008900009E1022A07E1012A05E1002A0DE00132FF
:1008A0000232033246C051F04A50511A51AE02D0C2
:1008B000018E06D0019E04D0006A016A026A036AB2
:1008C000CFEF06F05250D8B471D0006E5650D8B465
:1008D0006DD0002604E3810E002668E204D07F0E6E
:1008E000005E64E363E053C05AF057505A1A538EC7
:1008F000578E55505902F4CF5CF054505802F4CF43
:1009000003F0F3CF5BF05902F3505C26F4505B2206
:10091000000E032255505802F3505C26F4505B221F
:10092000000E026A0322022253505902F3505B2642
:10093000F4500322000E022253505802F3500326B3
:10094000F4500222000E016A012255505702F35062
:100950005B26F4500322000E02220122545057025B
:10096000F3500326F4500222000E01225350570286
:10097000F3500226F4500122002A01BE05D05B3656
:100980000336023601360006000E5BAE0AD0032A9B
:1009900002220122015005E1025003E1035001E16E
:1009A000002A5ABE018E5AAE019E04D0006A016A26
:1009B000026A036A12000900F6CF46F0F7CF47F04B
:1009C000F5509EA8FED7AD6E46C0F6FF47C0F7FFB4
:1009D000452EF1D71200EACF4DF0E9CF4CF046AEEC
:1009E00008D04C8E4CA84C2A451E461E452AD8B429
:1009F000462A4638F009486E4826E20F496E320F03
:100A00004B6E46500F0B492649264B26E90F4A6E7E
:100A10004A264A2645380F0B4A264B264A364B367D
:100A20004B1E4B3645500F0B4B264836070E476E74
:100A30000A0E4A064B26FDE349064A26FDE3480610
:100A40004926FDE347064826FDE3EA6A470EE96EBC
:100A5000070E4C144C9CED524C1407E14CB8EE526E
:100A60004CB803D0200E006E20D0E926000EEA22FA
:100A7000E9504B0803E1EA5201E14C8CEF50006E63
:100A800008E14CBC06D04CB814D04CB602D0200EB5
:100A90000BD04CAE06D02D0E006EED504C9C4C9EF3
:100AA00004D04C864C98300E002600509EA8FED7ED
:100AB000AD6EEE504CACDCD7FCEF06F05250B608F1
:100AC000526E036A53C056F0538ED890533254324C
:100AD00055320332023201320032522EF6D756AE70
:100AE0000BD0001E011E021E031E002AD8B4012ACC
:100AF000D8B4022AD8B4032AECEF05F0D8B203D058
:100B0000EA6A5A0EE96E006A016A026A036A5A6A60
:100B10005B6A5C6A5D6A59505810571056102CE099
:100B2000200E5E6ED89052365336543655365A36AD
:100B30005B365C365D3659505D5C08E158505C5C54
:100B400005E157505B5C02E156505A5C0FE356508A
:100B50005A5E5750D8A0573C5B5E5850D8A0583CBE
:100B60005C5E5950D8A0593C5D5ED8800036013695
:100B7000023603365E2ED6D75AC0EFFF5BC0ECFFBD
:100B80005CC0ECFF5DC0ECFF1200E9504A6E4950BA
:100B90004C6E19E048C055F047C054F046C053F0C1
:100BA00045C052F0596A586A200E576E820E566E32
:100BB00089DE03C048F002C047F001C046F000C023
:100BC00045F04C2EE7D748C055F047C054F046C01A
:100BD00053F045C052F072D703C048F002C047F04E
:100BE00001C046F000C045F048AE0DD04A064A8A22
:100BF000451E461E471E481E452AD8B4462AD8B46C
:100C0000472AD8B4482A3B0E516E9A0E506ECA0E2F
:100C10004F6E4E6A0A0E4C6E4950D8B44A2AD8829A
:100C2000EA6A450EE96E48C055F047C054F046C028
:100C300053F045C052F051C059F050C058F04FC069
:100C400057F04EC056F05ADF015000520FE14928CC
:100C50004C5C0CE04A500CE00F0B4C5C01E03BE2BA
:100C60004ABE39D04ABC04D0200E30D0200E4A16DD
:100C70004AAA0DD04A9A4950D8A44A0600504A6E52
:100C80002D0E9EA8FED7AD6E4A50006E4A6A49509E
:100C90004C5C0BE100504A6E2E0E9EA8FED7AD6E46
:100CA0004A50006E200E4A16000E300E4AAA0ED090
:100CB0004A9A4950D8A44A0600504A6E2D0E9EA862
:100CC000FED7AD6E4A50006E4A6A300E00260050C4
:100CD0009EA8FED7AD6ED89251C055F050C054F0CA
:100CE0004FC053F04EC052F0596A586A576A0A0E04
:100CF000566E04DF03C051F002C050F001C04FF047
:100D000000C04EF04C2E8BD710EF07F02B520BE0AB
:100D10007A0EF66E010EF76EFADCF80EF66E010E24
:100D2000F76EF5DC2B6A2A50310A0AE0030AD8B4C0
:100D300083D0010AD8B451D1070AD8B4F6D169D208
:100D4000000E016EC250C30B0110C26E060E006E83
:100D5000002EFED70000C282C2B2FED7C4CF40F040
:100D6000C3CF3FF040C042F03FC041F0E1D403C0E8
:100D700044F002C043F001C042F000C041F003C0A3
:100D800048F002C047F001C046F000C045F04C6A90
:100D9000C00E4B6E7F0E4A6E880E496EE5D403C0BE
:100DA00044F002C043F001C042F000C041F003C073
:100DB00055F002C054F001C053F000C052F0596A1F
:100DC000586A200E576E810E566E7CDD03C044F0CB
:100DD00002C043F001C042F000C041F02E0EF66E9A
:100DE000020EF76E190E456EE6DD100EE96E40C07C
:100DF00046F03FC045F0EFD54A0EF66E020EF76E94
:100E0000130E456ED8DD890EE96E44C048F043C02C
:100E100047F042C046F041C045F0020E496EB5D6DB
:100E20005F0EF66E020EF76E080E456EC4DD300ED4
:100E30002A6E010E2B6EEFD12D520BE0680EF66E6E
:100E4000020EF76E64DCE40EF66E020EF76E5FDCE7
:100E50002D6A2C50310A08E0030A16E0010A23E04B
:100E6000190AD8B4AED0B6D0365202E0000E01D086
:100E7000010E366E320EF66E030EF76E48DC300E43
:100E80002C6E010E2D6EA8D0F40ED8801956010ECE
:100E90001A56460EF66E030EF76E39DC300E2C6EC7
:100EA000010E2D6E99D033523BE05A0EF66E030EB2
:100EB000F76E220E456E7FDD250E9EA8FED7AD6E25
:100EC0007E0EF66E030EF76E0B0E456E74DD250E6C
:100ED0009EA8FED7AD6E8B0EF66E030EF76E0B0E50
:100EE000456E69DD250E9EA8FED7AD6E980EF66E96
:100EF000030EF76E0D0E456E5EDD250E9EA8FED725
:100F0000AD6E0D0E9EA8FED7AD6E0A0E9EA8FED742
:100F1000AD6EAA0EF66E030EF76E87EC03F0336A21
:100F20003250310A09E0030A14E0010A20E0070AFE
:100F30002DE01E0A3AE042D01A6A196AF00EF66EE7
:100F4000030EF76E87EC03F0300E326E010E336E37
:100F500037D01A6A960E196E040EF66E040EF76EEE
:100F600087EC03F0300E326E010E336E29D0010E85
:100F70001A6E5E0E196E180EF66E040EF76E87EC82
:100F800003F0300E326E010E336E1AD0010E1A6E5F
:100F9000F40E196E2C0EF66E040EF76E87EC03F04D
:100FA000300E326E010E336E0BD0300E326E32C008
:100FB0002CF0010E336E33C02DF002D0300E326EA5
:100FC0000BD0300E2C6E2CC02AF0010E2D6E2DC0D1
:100FD0002BF002D0300E2C6E1ED12F520DE0400EA1
:100FE000F66E040EF76E87EC03F0A80EF66E040E94
:100FF000F76E87EC03F02F6A2E50310A08E0030ADF
:1010000017E0010A26E0190AD8B483D08BD03752F2
:1010100002E0000E01D0010E376EF60EF66E040EE1
:10102000F76E87EC03F0300E2E6E010E2F6E7CD023
:10103000385202E0000E01D0010E386E0A0EF66E34
:10104000050EF76E87EC03F0300E2E6E010E2F6E3C
:101050006BD035520DE01E0EF66E050EF76E87EC66
:1010600003F07E0EF66E050EF76E87EC03F0356A20
:101070003450310A09E0030A16E0010A22E0070AA7
:101080002EE01E0A3AE042D0010E1C6E2C0E1B6EA2
:10109000C40EF66E050EF76E87EC03F0300E346E5C
:1010A000010E356E35D01C6AA90E1B6ED80EF66E79
:1010B000050EF76E87EC03F0300E346E010E356EC0
:1010C00027D01C6A520E1B6EEC0EF66E050EF76EE4
:1010D00087EC03F0300E346E010E356E19D01C6AA9
:1010E0000A0E1B6E000EF66E060EF76E87EC03F00E
:1010F000300E346E010E356E0BD0300E346E34C0AF
:101100002EF0010E356E35C02FF002D0300E346E49
:101110000BD0300E2E6E2EC02AF0010E2F6E2FC077
:101120002BF002D0300E2E6E76D031520DE0140E20
:10113000F66E060EF76E87EC03F0640EF66E060E82
:10114000F76E87EC03F0316A3050310A05E0030A8C
:1011500014E0180A52E05AD0395202E0000E01D0D1
:10116000010E396EB20EF66E060EF76E87EC03F0C6
:10117000300E306E010E316E4BD03A5207E0C60E83
:10118000F66E060EF76E87EC03F03A6A27502F08CA
:101190000CE22750390809E328502F0806E22850AE
:1011A000390803E328500D0815E128500D0805E122
:1011B00027C028F0300E276E0DD0296A010E3A6E36
:1011C000300E286E28C027F0F20EF66E060EF76E6F
:1011D00087EC03F0295001080FE20D0E9EA8FED700
:1011E000AD6E0A0E9EA8FED7AD6E296A010E3A6E4C
:1011F000300E306E010E316E0BD0300E306E30C0BE
:101200002AF0010E316E31C02BF002D0300E306E5C
:1012100002D0300E2A6E89EF0AF0365214E01AC05E
:1012200002F019C001F00232013202320132023200
:1012300001C0BEFF02320230300B006EBD50CF0B3A
:101240000010BD6E06D03E0EBE6EBD50CF0B200905
:10125000BD6E8AEF0AF04050070B006E4030016E01
:10126000013201321F0E011601504224E96E000EB8
:101270004320EA6E016A012A002A01D00136002EBD
:10128000FDD7415203E00150EF1203D0011E01507F
:10129000EF161200016A026A006A036A435002E113
:1012A000425018E0100E446ED89040364136003659
:1012B00003364350035C02E14250005C07E34250B6
:1012C000005ED8A003064350035ED8800136023684
:1012D000442EEAD7EBEF09F0EA6A410EE96EEF50CF
:1012E0000DE0020E016E006A002EFED7012EFBD724
:1012F000970E006E002EFED7EF2EF3D71200395254
:1013000025E0959C8C8C959E8C9E300E275C036A04
:101310001D0FE96E000E0320EA6EEFCF8AFF936A7D
:10132000050E416ED9DF959E8C8E959C8C9C300E5F
:10133000285C036A1D0FE96E000E0320EA6EEFCFF2
:101340008AFF936A050E416EC7DF04D0959E8C8E8E
:10135000959C8C8C12003752D8B465D0385210E06E
:101360003D2AD8B43E2A3E507B0809E2FF0A03E139
:101370003D501B0804E27C0E3E6E180E3D6E0FD0F1
:101380003D50D8B43E063D063E507C0808E303E1DC
:101390003D50170804E37C0E3E6E1B0E3D6E3DC0B3
:1013A00040F0010E416E0F0E436E890E426E53DF08
:1013B0003DC040F0416A0F0E436E920E426E4BDF0D
:1013C000395215E03F6A1CC041F01BC040F0436A2F
:1013D0000A0E426E5FD702C003F00150035203E1D0
:1013E00001503F5C03E28BDF3F2AEDD70CD01CC0DD
:1013F00040F0402A4006D8B403D041686DDFFAD7E8
:101400001BC041F069DF3DC040F0416A0F0E436EE2
:10141000890E426E20DF3DC040F0416A0F0E436EE0
:10142000920E426E18DF8BEF0AF0F86AD09E078E9C
:10143000700ED36ED350B8960C0EAF6EA20EAC6E7B
:10144000900EAB6E010E1A6EF40E196E1C6A0A0E27
:101450001B6E296A3C6A3B6AC150C00B0F09C16E02
:10146000070EB46E15D00C001D3F065B4F666D7DF8
:10147000077F6730300C002A300130013001300125
:101480003001300104C00001800102003D177C00E2
:10149000000EF86E140EF76E660EF66E0900F5502B
:1014A000006E000A13E00900F550016EE8BE05D099
:1014B0003F0BEA6E0900F5CFE9FF01BC090001AC62
:1014C0000900F5CFEEFF004EE9D7F9D7F86AC00E54
:1014D000F2129D8AC050C00BC06EC08EC280C15037
:1014E000C00B0E09C16E060E006E002EFED7000066
:1014F000010E926E000E0609CA6E7C0ECB6E94949D
:101500008B94959A8C0EBD6E010EB76EB66A86EFFF
:0C15100006F083D620D7F3DEFAD70300E4
:020000040030CA
:0E00000020C93E1E0087A1000FC00FE00F4078
:00000001FF
;PIC18F4550
;CRC=E7A1  CREATED="22-oct.-23 23:41"
