:1000000018EF00F0EA6A0B0EE96EEF50D8B417EF64
:1000100000F0010E016E006A002EFED7012EFBD704
:100020004A0E006E002EFED700D0EF2EF2D712003F
:10003000F86AD09EC150C00B0F09C16E070EB46E96
:10004000066A056AC050C00BC06EC09EC280C15017
:10005000C00B0E09C16E010E926E000E016EC250F1
:10006000C30B0110C26E060E006E002EFED70000FC
:10007000080E086EFA0E0B6EC5DF082EFBD7C28283
:10008000C2B2FED7066AC4CF05F0010E076E075054
:10009000080817E3936A07C08AFF400E0524086E1C
:1000A000000E0620096E0A6E0A2A0A06D8B403D08A
:1000B0000B68A8DFFAD708C00BF0A4DFD89007368A
:0C00C000E6D7956A05C08CFFDAD7030074
:020000040030CA
:0E00000020C03E1E0007A1000FC00FE00F4001
:00000001FF
;PIC18F4550
;CRC=9791  CREATED="07-sep.-23 14:19"
