:1000000027EF01F00D503108D8A40BEF00F09690C7
:100010008D800DEF00F096928D8293988A98956A64
:100020000EC08CFF939A8A8A00D000D0939A8A9A45
:1000300096908D9096928D921200096A0950070849
:1000400034E396948D94010E0D6E400E0E6EDADF41
:10005000020E0D6E400E0E6ED5DF0950B8090B6E04
:10006000010E0D6E0BC00EF0CDDF0950B8090B6EFE
:10007000020E0D6E0BC00EF0C5DF96948D840A6AD9
:100080000A503F0810E30850FF0DF3CF0EF0010EA9
:100090000D6EB8DF0850FF0DF3CF0EF0020E0D6E9F
:1000A000B1DF0A2AEDD7092AC9D7120094908B80B4
:1000B000939A8A9A96908D9096928D9296948D941A
:1000C000010E0D6EC00E0E6E9DDF020E0D6EC00E87
:1000D0000E6E98DF010E0D6E400E0E6E93DF020E57
:1000E0000D6E400E0E6E8EDF010E0D6EB80E0E6E92
:1000F00089DF020E0D6EB80E0E6E84DF072C0BD05A
:10010000010E0D6E3F0E0E6E7DDF020E0D6E3F0E68
:100110000E6E78DF0AD0010E0D6E3E0E0E6E72DF8F
:10012000020E0D6E3E0E0E6E6DDF086A86DF35EF35
:1001300001F00C2C03D096908D8002D096928D8287
:10014000956893988A88939A8A8A00D000D0939A67
:100150008A9A00D000D0939A8A8A00D000D09568FD
:1001600083CF0DF0939A8A9A96908D9096928D9265
:100170000DC001F0E1EF00F0010E0B6E07503F08DB
:1001800004E2400E075E020E0B6E96948D94079E5D
:10019000078C0BC00DF007C00EF034DF0830006E86
:1001A000003200321F0E00160050BF0BB8090C6E53
:1001B0000BC00DF00E6E26DF96948D840BC00CF0F4
:1001C000B8D701C00AF0092C0FD00850070B0C6EED
:1001D000010E006E0C50016E04E0D8900036012E26
:1001E000FCD700500A120FD00850070B0C6E010EFE
:1001F000006E0C50016E04E0D8900036012EFCD742
:100200000050FF0A0A1696948D940BC00DF007C09B
:100210000EF0F8DE96948D840BC00DF00AC00EF03F
:10022000F1DE46EF01F0EA6A070EE96EEF500DE0ED
:10023000020E016E006A002EFED7012EFBD7970E2C
:10024000006E002EFED7EF2EF3D73CEF01F0F86AD8
:10025000D09E700ED36ED350C150C00B0F09C16E2B
:10026000070EB46E010E076E21D7086AE6DE056A36
:1002700005503F0813E3066A06503F080DE306C029
:1002800007F005C008F0010E096E76D70650062A61
:10029000640E076EC8D7F0D7052AEAD7E8D703005F
:020000040030CA
:0E00000020C93E1E0007A1000FC00FE00F40F8
:00000001FF
;PIC18F4550
;CRC=93E6  CREATED="08-mar.-24 13:11"
