:0400000043EF07F0D3
:08000800046ED8CF05F0E0CF33
:1000100006F00001E9CF0CF0EACF07F0E1CF08F0DD
:10002000E2CF09F0D9CF0AF0DACF0BF0F3CF12F01C
:10003000F4CF13F0FACF14F0F5CF15F0F6CF16F099
:10004000F7CF17F000C00EF001C00FF002C010F0A3
:1000500003C011F0F2AA30EF00F0F2B4BFEF03F0EA
:100060009DAA36EF00F09EBA5DEF00F00EC000F0E2
:100070000FC001F010C002F011C003F00CC0E9FF86
:1000800007C0EAFF078E08C0E1FF09C0E2FF0AC00F
:10009000D9FF0BC0DAFF12C0F3FF13C0F4FF14C086
:1000A000FAFF15C0F5FF16C0F6FF17C0F7FF0450A2
:1000B00006C0E0FF05C0D8FF10009EAAFED7AECF55
:1000C00091F091512B0A03E0010A04E035D020841D
:1000D000208032D0EA6A540EE96EED6A9EAAFED7FD
:1000E000AECFECFF0D0EEF5CF9E1EC6A9EAAFED7F5
:1000F000AECF72F0EA6A5E0EE96EED6A9EAAFED796
:10010000AECFECFF0D0EEF5CF9E1EC6A9EAAFED7D4
:10011000AECF73F0EA6A680EE96EED6A9EAAFED76A
:10012000AECFECFF0D0EEF5CF9E1EC6A9EAAFED7B4
:10013000AECF74F0208200D09E9A36EF00F0EACF66
:1001400099F0E9CF98F09239F009946F9427E20F73
:10015000956F320F976F92510F0B95279527972721
:10016000E90F966F9627962791390F0B96279727B9
:1001700096379737971F973791510F0B97279437DB
:10018000070E936F0A0E96079727FDE395079627AC
:10019000FDE394079527FDE393079427FDE3EA6ABF
:1001A000930EE96E070E9815989DE926000EEA2237
:1001B000E950970803E1EA5201E1988DEF50006E93
:1001C00008E198BD06D098B90CD098B702D0200E9F
:1001D00003D098879899300E002600509EA8FED72D
:1001E000AD6EEE5098ADE4D71200D8B203D0EA6AF3
:1001F000AA0EE96E006A016A026A036AAA6BAB6B17
:10020000AC6BAD6BA951A811A711A6112CE0200E63
:10021000AE6FD890A237A337A437A537AA37AB372C
:10022000AC37AD37A951AD5D08E1A851AC5D05E132
:10023000A751AB5D02E1A651AA5D0FE3A651AA5FEB
:10024000A751D8A0A73DAB5FA851D8A0A83DAC5FEF
:10025000A951D8A0A93DAD5FD8800036013602363D
:100260000336AE2FD6D7AAC0EFFFABC0ECFFACC0B1
:10027000ECFFADC0ECFF1200E950956F3B0E9C6F98
:100280009A0E9B6FCA0E9A6F996B0A0E976FD8825F
:10029000EA6A910EE96E94C0A5F093C0A4F092C0F2
:1002A000A3F091C0A2F09CC0A9F09BC0A8F09AC096
:1002B000A7F099C0A6F099DF015000520FE19751C5
:1002C000010A0CE095510BE00F0B975D01E00DE288
:1002D00095BF0BD095BD03D0200E02D0956B300E8C
:1002E000002600509EA8FED7AD6ED8929CC0A5F007
:1002F0009BC0A4F09AC0A3F099C0A2F0A96BA86B10
:10030000A76B0A0EA66F71DF03C09CF002C09BF0C2
:1003100001C09AF000C099F0972FB9D712000900D8
:10032000F6CF92F0F7CF93F0F5509EA8FED7AD6EC2
:1003300092C0F6FF93C0F7FF912FF1D712008E0EF7
:10034000006E94C001F093C002F0036A015209E10B
:1003500002C001F0026A080E005E015202E1006A6A
:1003600008D0D89001BE04D0023601360006F9D775
:10037000019E1200A251D8B471D0006EA651D8B41B
:100380006DD0002604E3810E002668E204D07F0EC3
:10039000005E64E363E0A3C0AAF0A751AA1BA38F89
:1003A000A78FA551A903F4CFACF0A451A803F4CFB3
:1003B00003F0F3CFABF0A903F350AC27F450AB2319
:1003C000000E0322A551A803F350AC27F450AB2331
:1003D000000E026A03220222A351A903F350AB27A5
:1003E000F4500322000E0222A351A803F350032667
:1003F000F4500222000E016A0122A551A703F35016
:10040000AB27F4500322000E02220122A451A703BD
:10041000F3500326F4500222000E0122A351A70339
:10042000F3500226F4500122002A01BE05D0AB375A
:100430000336023601360006000EABAF0AD0032A9F
:1004400002220122015005E1025003E1035001E1C3
:10045000002AAABF018EAAAF019E04D0006A016AD9
:10046000026A036A12009551D8B4A5D0A16F9951C0
:10047000D8B4A1D0A15F05E37F0EA127D8B09BD04F
:1004800006D0810EA15FD8A096D0D8B494D0A1C0D8
:1004900000F0016A026A036AA06B96C09FF09F8F0A
:1004A00097C09EF098C09DF0190EA16F9C519D5F62
:1004B0000DE2010E9E5F0AE29F5F08E2A05F06E286
:1004C000A02B9F2B9E2B9C519D2728D09B519E5F3C
:1004D00012E2010E9F5F0FE2A05F0DE2A02B9F2BA7
:1004E0009B519E279C519D2719E39E2B17E19F2B23
:1004F00015E1A02B13D09A5180099F5F0EE2010EE7
:10050000A05F0BE2A02B9A5180099F279B519E2749
:10051000E9E39F2BE7E1A02BE5D70380A12F01D0D2
:100520000BD0D8909D379E379F37A037D890033691
:1005300002360136A237BAD7A2A106D0D89001322E
:1005400002320332A23302D0000635E0A2BF1ED031
:10055000D8909D379E379F37A0379C519D5F07E20B
:10056000010E9E5F04E29F5F02E2A05F1AE39B51CF
:100570009E5F05E2010E9F5F02E2A05F12E39A51C7
:1005800080099F5F03E2010EA05F0BE3032A09E1EC
:10059000022A07E1012A05E1002A0DE001320232B8
:1005A000033296C0A1F09A51A11BA1AF02D0018ED7
:1005B00006D0019E04D0006A016A026A036A120032
:1005C000A251B608A26F036AA3C0A6F0A38FD89069
:1005D000A333A433A5330332023201320032A22FF7
:1005E000F6D7A6AF0BD0001E011E021E031E002A66
:1005F000D8B4012AD8B4022AD8B4032A1200E95088
:100600009A6F99519C6F19E098C0A5F097C0A4F01B
:1006100096C0A3F095C0A2F0A96BA86B200EA76F9F
:10062000820EA66FA7DE03C098F002C097F001C04B
:1006300096F000C095F09C2FE7D798C0A5F097C022
:10064000A4F096C0A3F095C0A2F0BADF03C098F062
:1006500002C097F001C096F000C095F098AF0DD0A1
:100660009A079A8B951F961F971F981F952BD8B4A2
:10067000962BD8B4972BD8B4982B3B0EA16F9A0E1B
:10068000A06FCA0E9F6F9E6B0A0E9C6F9951D8B4D3
:100690009A2BD882EA6A950EE96E98C0A5F097C0A9
:1006A000A4F096C0A3F095C0A2F0A1C0A9F0A0C08C
:1006B000A8F09FC0A7F09EC0A6F097DD01500052A1
:1006C0000FE199299C5D0CE09A510CE00F0B9C5DA9
:1006D00001E03BE29ABF39D09ABD04D0200E30D061
:1006E000200E9A179AAB0DD09A9B9951D8A49A07CD
:1006F00000509A6F2D0E9EA8FED7AD6E9A51006ED7
:100700009A6B99519C5D0BE100509A6F2E0E9EA83A
:10071000FED7AD6E9A51006E200E9A17000E300E65
:100720009AAB0ED09A9B9951D8A49A0700509A6F11
:100730002D0E9EA8FED7AD6E9A51006E9A6B300EAC
:10074000002600509EA8FED7AD6ED892A1C0A5F09D
:10075000A0C0A4F09FC0A3F09EC0A2F0A96BA86B9C
:10076000A76B0A0EA66F41DD03C0A1F002C0A0F086
:1007700001C09FF000C09EF09C2F8BD71200430E4B
:10078000D76E9D0ED66E20A403D08C82209408D004
:10079000000E8CB2010E010A8C92E8B08C8220907F
:1007A000230E9EA8FED7AD6E100EE96E2CC092F0FF
:1007B0002BC091F0C4DC200E9EA8FED7AD6E410E7A
:1007C000E96E30C094F02FC093F02EC092F02DC08F
:1007D00091F052DDC60EF66E090EF76E030E916FA4
:1007E0009EDD100EE96E3DC092F03CC091F0A7DC9A
:1007F000200E9EA8FED7AD6E410EE96E41C094F06A
:1008000040C093F03FC092F03EC091F035DDD00E75
:10081000F66E090EF76E030E916F81DD100EE96E14
:100820004EC092F04DC091F08ADC200E9EA8FED7FB
:10083000AD6E410EE96E52C094F051C093F050C0BD
:1008400092F04FC091F018DD0A0E9EA8FED7AD6E53
:10085000000E016EC250C30B0110C26E100E006E6E
:10086000002EFED70000C282C2B2FED7C4CF02F073
:10087000C3CF01F0C4CF94F0C3CF93F060DD03C0C9
:10088000A5F002C0A4F001C0A3F000C0A2F0EC0EDD
:10089000A96F510EA86F780EA76F7E0EA66F6ADD46
:1008A00003C094F002C093F001C092F000C091F038
:1008B00003C098F002C097F001C096F000C095F018
:1008C0009C6B9B6B200E9A6F820E996FCCDD03C0E0
:1008D00094F002C093F001C092F000C091F02B0E92
:1008E0009EA8FED7AD6E890EE96E94C098F093C0B5
:1008F00097F092C096F091C095F0020E996F7FDE4E
:100900000A0E9EA8FED7AD6E040E016EC250C30B38
:100910000110C26E100E006E002EFED70000C282C3
:10092000C2B2FED7C4CF02F0C3CF01F0C4CF94F05F
:10093000C3CF93F004DD03C0A5F002C0A4F001C052
:10094000A3F000C0A2F0EC0EA96F510EA86F780EB4
:10095000A76F7E0EA66F0EDD03C094F002C093F069
:1009600001C092F000C091F003C098F002C097F06F
:1009700001C096F000C095F09C6B9B6B200E9A6FA7
:10098000820E996F70DD03C094F002C093F001C035
:1009900092F000C091F0890EE96E03C098F002C099
:1009A00097F001C096F000C095F0020E996F27DE17
:1009B0000A0E9EA8FED7AD6EF29436EF00F0232506
:1009C0006C7520256C75207C20256C7520256C7538
:1009D000207C20256C7520256C750A008151070B41
:1009E000006E8131016E013201321F0E011601507D
:1009F0008325E96E000E8421EA6E016A012A002A2D
:100A000001D00136002EFDD7825303E00150EF12D2
:100A100003D0011E0150EF161200856B836B0A0E86
:100A2000846F826B816B806B7F6B7D517E1105E1E2
:100A3000006A016A026A036A25D18551852B7D25EA
:100A4000E96E000E7E21EA6EEFCF86F086512D080A
:100A50000CE1010E836F8551852B7D25E96E000E1B
:100A60007E21EA6EEFCF86F00CD086512B0809E18B
:100A70008551852B7D25E96E000E7E21EA6EEFCF34
:100A800086F086512F08D8B0E5D086513908D8A015
:100A9000E1D0865130081EE185517D25E96E000EBA
:100AA0007E21EA6EEF50780809E085517D25E96ED8
:100AB000000E7E21EA6EEF5058080CE1100E846F94
:100AC000852B8551852B7D25E96E000E7E21EA6EF2
:100AD000EFCF86F084510A083FE186512F083BE2B0
:100AE0008651390838E3D8907F35886F8035896F13
:100AF00081358A6F82358B6F7F35006E8035016E50
:100B00008135026E8235036E0036013602360336B9
:100B10000036013602360336F80E001600508825DE
:100B20007F6F01508921806F02508A21816F0350AD
:100B30008B21826F300E865D7F27000E80238123FC
:100B400082238551852B7D25E96E000E7E21EA6E7C
:100B5000EFCF86F0C2D77ED084511008D8A47AD0C7
:100B60008651600806E286517A0803E38651DF0B5E
:100B700001D08651866F86512F0803E286513908CD
:100B800006E28651400866E28651460863E38651D4
:100B90002F0827E28651390824E37F35886F803596
:100BA000896F81358A6F82358B6F883789378A37AD
:100BB0008B37883789378A378B37883789378A3731
:100BC0008B37F00E8817300E865D88257F6F000EFC
:100BD0008921806F000E8A21816F000E8B21826F28
:100BE00024D07F35886F8035896F81358A6F823553
:100BF0008B6F883789378A378B37883789378A37B9
:100C00008B37883789378A378B37F00E8817410E34
:100C1000865D0A0F88257F6F000E8921806F000E88
:100C20008A21816F000E8B21826F8551852B7D2556
:100C3000E96E000E7E21EA6EEFCF86F086516008E5
:100C400006E286517A0803E38651DF0B01D0865114
:100C5000866F91D784510A080DE1832D0BD07F1F39
:100C6000801F811F821F7F2BD8B4802BD8B4812B8B
:100C7000D8B4822B7FC000F080C001F081C002F0A8
:100C800082C003F012008B6B8C6B010E8D6FDA6AE1
:100C9000D96A906B830E8F6FEA6A870EE96E90C0F7
:100CA000E2FF8FC0E1FF8DC08EF0D890E550EE02DC
:100CB000F3508B23F4508C238E2FF7D78BC0DEFF9D
:100CC0008CC08BF08C6BD8B08C2B8F2BD8B4902B26
:100CD0008D2B8D510508E0E11200B60E006E036AFF
:100CE000026A016A819180AF0CD081817D1F7E1FD5
:100CF0007F1F801F7D2B05E17E2B03E17F2BD8B466
:100D0000802B7D517E117F11801102E1006A0FD08E
:100D1000D89001BE09D07D377E377F3780370336C4
:100D200002360136002EF4D7019E81B1018EF0EF1C
:100D300008F0080E7D25E96E000E7E21EA6E036A3A
:100D4000EFCF02F0D8900236033602507D25E96ECF
:100D50007E510320EA6EECCF80F0ED52EFCF7FF0B2
:100D60007FC081F0826B0F0E846F890E836F36DE39
:100D70007FC081F0826B0F0E846F920E836F2EDE28
:100D8000090E7D25E96E000E7E21EA6EEFA01BD0D4
:100D9000080E7D25E96E000E7E21EA6EEF500308F5
:100DA00009E1080E7D25E96E000E7E21EA6EEF6AEC
:100DB000000E08D0080E7D25E96E000E7E21EA6E39
:100DC000EF50EF2A19D0080E7D25E96E000E7E2126
:100DD000EA6EEF5209E1080E7D25E96E000E7E21D4
:100DE000EA6E030EEF6E08D0080E7D25E96E000E48
:100DF0007E21EA6EEF50EF06080E7D25E96E000EAB
:100E00007E21EA6E036AEFCF02F0D89002360336F5
:100E100002507D25E96E7E510320EA6EECCF80F012
:100E2000ED52EFCF7FF07FC081F0010E826F0F0E89
:100E3000846F890E836FD2DD7FC081F0826B0F0ECD
:100E4000846F920E836FCADD0A0E7D25E96E000E57
:100E50007E21EA6E010EEE2601E3EF2A1200EA6A15
:100E60007D0EE96EEF500DE0060E016E006A002E59
:100E7000FED7012EFBD77B0E006E002EFED7EF2E85
:100E8000F3D769EF09F0F86AD09E078EB886080E8E
:100E9000AF6E020EB06EA60EAC6E900EAB6EC15071
:100EA000C00B0F09C16E070EB46E1ED002001A00EF
:100EB000000B0020000F7C0E7C0D7C0C7C000106DA
:100EC000C0000980010B7C0A7C097C087C08C000FA
:100ED0000B8001057C207C217C227C000106C00067
:100EE0000180010840750000000EF86E0E0EF76ECE
:100EF000AC0EF66E0900F550006E000A13E0090012
:100F0000F550016EE8BE05D03F0BEA6E0900F5CF43
:100F1000E9FF01BC090001AC0900F5CFEEFF004E6E
:100F2000E9D7F9D7F86A0B0E926E936A800E946E29
:100F3000956AC050C00BC06EC08EC280C150C00B3D
:100F40001D09C16E860ED56E430ED76E9D0ED66EF0
:100F5000E00EF26E9F8A9D8AD08EF1948C908C92D6
:100F600021C081F0010E826F0F0E846F890E836F96
:100F700035DD21C081F0826B0F0E846F920E836F7E
:100F80002DDD23C081F0826B0F0E846F890E836F7D
:100F900025DD23C081F0826B0F0E846F920E836F6C
:100FA0001DDD25C081F0826B0F0E846F890E836F6B
:100FB00015DD25C081F0826B0F0E846F920E836F5A
:100FC0000DDD27C081F0826B0F0E846F890E836F59
:100FD00005DD27C081F0826B0F0E846F920E836F48
:100FE000FDDC32C081F0010E826F0F0E846F890E1E
:100FF000836FF4DC32C081F0826B0F0E846F920E2F
:10100000836FECDC34C081F0826B0F0E846F890E2D
:10101000836FE4DC34C081F0826B0F0E846F920E1C
:10102000836FDCDC36C081F0826B0F0E846F890E1B
:10103000836FD4DC36C081F0826B0F0E846F920E0A
:10104000836FCCDC38C081F0826B0F0E846F890E09
:10105000836FC4DC38C081F0826B0F0E846F920EF8
:10106000836FBCDC43C081F0010E826F0F0E846F72
:10107000890E836FB3DC43C081F0826B0F0E846FE7
:10108000920E836FABDC45C081F0826B0F0E846FD4
:10109000890E836FA3DC45C081F0826B0F0E846FD5
:1010A000920E836F9BDC47C081F0826B0F0E846FC2
:1010B000890E836F93DC47C081F0826B0F0E846FC3
:1010C000920E836F8BDC49C081F0826B0F0E846FB0
:1010D000890E836F83DC49C081F0826B0F0E846FB1
:1010E000920E836F7BDC20A2F7D08C804E6A4D6A13
:1010F0004EC03DF04DC03CF03DC02CF03CC02BF04C
:101100005390429031907E6B540E7D6F86DC03C00D
:1011100080F002C07FF001C07EF000C07DF0EACF19
:1011200082F0E9CF81F003C086F002C085F001C0F3
:1011300084F000C083F08A6B896B030E886FE80E21
:10114000876FA1DD82C0EAFF81C0E9FF03C030F0F4
:1011500002C02FF001C02EF000C02DF0300E725DE5
:101160002A90E8B02A807E6B5E0E7D6F56DC03C04D
:1011700080F002C07FF001C07EF000C07DF0EACFB9
:1011800082F0E9CF81F003C086F002C085F001C093
:1011900084F000C083F08A6B896B030E886F840E25
:1011A000876F71DD82C0EAFF81C0E9FF03C041F0B3
:1011B00002C040F001C03FF000C03EF0300E735D51
:1011C0003B90E8B03B807E6B680E7D6F26DC03C0F1
:1011D00080F002C07FF001C07EF000C07DF07DD5C0
:1011E00003C080F002C07FF001C07EF000C07DF03F
:1011F000196AF2BE198EF29E03C0A5F002C0A4F0D7
:1012000001C0A3F000C0A2F0290EA96F5C0EA86F68
:101210007F0EA76F800EA66FBAEC01F019BEF28E9A
:10122000196AF2BE198EF29E03C0A5F002C0A4F0A6
:1012300001C0A3F000C0A2F0E0EC02F019BEF28EF3
:1012400003C052F002C051F001C050F000C04FF096
:10125000300E745D4C90E8B04C8031A004D042A0B8
:1012600002D053B037D0305209E12F5207E12C5051
:101270002E5C09E303E12D502B5C05E27E6B210E11
:101280007D6F57DD01D03180415209E1405207E1C5
:101290003D503F5C09E303E13E503C5C05E27E6B60
:1012A000320E7D6F46DD01D04280525209E151522B
:1012B00007E14E50505C09E303E14F504D5C05E2FD
:1012C0007E6B430E7D6F35DD01D053800A0E7D6F3E
:0C12D000C6D5C3D78C90209206D703002F
:020000040030CA
:0E00000020CC3E1E0087A1000FC00FE00F4075
:00000001FF
;PIC18F4550
;CRC=24B1  CREATED="11-dic.-24 14:38"
