:1000000018EF00F0EA6A130EE96EEF50D8B416EF5D
:1000100000F0020E016E006A002EFED7012EFBD703
:10002000970E006E002EFED7EF2EF3D740EF00F0B4
:10003000F86AD09E700ED36ED350C150C00B0F091A
:10004000C16E070EB46E3F0E046E060E056E5B0E9B
:10005000066E4F0E076E660E086E6D0E096E7D0EF3
:100060000A6E070E0B6E7F0E0C6E670E0D6E936A96
:10007000F00E956E040E0E6E0F6E04C08AFF106AAD
:100080001050020838E3010E006E1050016E04E0BB
:10009000D8900036012EFCD700508C12010E006E55
:1000A0001050016E04E0D8900036012EFCD70050AD
:1000B0008C168350F00B116E126A1250020815E371
:1000C000100E006E1250016E04E0D8900036012E22
:1000D000FCD70050115C07E1010E12240F6E010ED7
:1000E00010240E6E02D0122AE8D71050102A050EE6
:1000F000136E88D7C5D70F50010A05E0030A14E034
:10010000010A23E033D00E50010A05E0030A06E09D
:10011000010A07E008D00BC08AFF05D008C08AFF9B
:1001200002D005C08AFF22D00E50010A05E0030A62
:1001300006E0010A07E008D00CC08AFF05D009C01C
:100140008AFF02D006C08AFF11D00E50010A05E0D6
:10015000030A06E0010A07E008D00DC08AFF05D0B7
:100160000AC08AFF02D007C08AFF00D088D70300E8
:020000040030CA
:0E00000020C93E1E0007A1000FC00FE00F40F8
:00000001FF
;PIC18F4550
;CRC=2083  CREATED="23-mar.-24 21:50"
