:04000000D4EF00F049
:08000800046ED8CF05F0E0CF33
:1000100006F00001E9CF0CF0EACF07F0E1CF08F0DD
:10002000E2CF09F0D9CF0AF0DACF0BF0F3CF12F01C
:10003000F4CF13F0FACF14F0F5CF15F0F6CF16F099
:10004000F7CF17F000C00EF001C00FF002C010F0A3
:1000500003C011F0F2A830EF00F0F2B257EF00F059
:100060000EC000F00FC001F010C002F011C003F08C
:100070000CC0E9FF07C0EAFF078E08C0E1FF09C016
:10008000E2FF0AC0D9FF0BC0DAFF12C0F3FF13C0B2
:10009000F4FF14C0FAFF15C0F5FF16C0F6FF17C035
:1000A000F7FF045006C0E0FF05C0D8FF100022C0D3
:1000B00024F021C023F0226A216A2580F29230EFD9
:1000C00000F0016A026A006A036A2B5002E12A50BA
:1000D00018E0100E2C6ED8902836293600360336DC
:1000E0002B50035C02E12A50005C07E32A50005EBB
:1000F000D8A003062B50035ED880013602362C2E82
:10010000EAD7A6EF00F0EA6A280EE96EEF500DE09C
:10011000020E016E006A002EFED7012EFBD7970E4D
:10012000006E002EFED7EF2EF3D712002590266A20
:100130002650070836E325B034D0276A24C029F0BA
:1001400023C028F02B6A0C0E2A6EBBD702C029F000
:1001500001C028F00230036E0130026E0332023219
:10016000033202321F0E031602C001F0035203E1F4
:100170000150275C14E225B012D0036A2650190FF3
:10018000E96E000E0320EA6EEFCF8CFF010E286EA1
:10019000BADF2750272A212AD8B4222ACFD7262AE5
:1001A000C7D78C6A03EF01F0F86AD09E078E700EF5
:1001B000D36ED350226A216A246A236A2590C150E3
:1001C000C00B0F09C16E070EB46E0E0E196E3F0EF6
:1001D0001A6E7F0E1B6EFE0E1C6E1D6E7F0E1E6E47
:1001E0003F0E1F6E0E0E206E010E936E956AD00E9E
:1001F000F26E25A002D09AD706D0010E286E83DFBA
:0A020000212AD8B4222AF5D7030002
:020000040030CA
:0E00000020C93E1E0007A1000FC00FE00F40F8
:00000001FF
;PIC18F4550
;CRC=F420  CREATED="06-feb.-24 12:16"
