:100000003AEF00F0EA6A140EE96EEF50D8B416EF3A
:1000100000F0020E016E006A002EFED7012EFBD703
:10002000970E006E002EFED7EF2EF3D71200929897
:10003000898892968996036A1250040FE96E000E21
:100040000320EA6EEFCF8CFF956A0A0E146EDADF9A
:100050009296898692988998036A1350040FE96EE4
:10006000000E0320EA6EEFCF8CFF956A0A0E146E25
:10007000C9DF1200F86AD09E700ED36ED350C15003
:10008000C00B0F09C16E070EB46E3F0E046E060E54
:10009000056E5B0E066E4F0E076E660E086E6D0ED9
:1000A000096E7D0E0A6E070E0B6E7F0E0C6E670ECC
:1000B0000D6E0E6A0F6A106A116A116A0F6A0F508C
:1000C00009083BE30E6A0E50090835E3106A105028
:1000D000310802E211522DE00FC012F00EC013F0F1
:1000E0000001A5DF928280A20ED011520CE1928213
:1000F00080A206D00FC012F00EC013F098DFF7D721
:10010000010E116E0FD0928280A20CD011520AE023
:10011000928280A206D00FC012F00EC013F087DFCB
:10012000F7D7116A928480A401D0C7D7102A0001A2
:10013000CED70E2AC8D70F2AC2D70001BED70300D8
:020000040030CA
:0E00000020C93E1E0007A1000FC00FE00F40F8
:00000001FF
;PIC18F4550
;CRC=F73B  CREATED="23-ago.-23 21:50"
